{
	"data": {
		"bytecode": {
			"linkReferences": {},
			"object": "6080604052601e60085560326009553480156200001b57600080fd5b5060405162003ae438038062003ae48339818101604052810190620000419190620006d1565b87600790805190602001906200005992919062000391565b5086600160006101000a81548173ffffffffffffffffffffffffffffffffffffffff021916908373ffffffffffffffffffffffffffffffffffffffff1602179055508560009080519060200190620000b392919062000422565b5060005b6000805490508110156200038257600060066000808481548110620000e157620000e062000b20565b5b9060005260206000200154815260200190815260200160002054146200013e576040517f08c379a000000000000000000000000000000000000000000000000000000000815260040162000135906200089a565b60405180910390fd5b6001600660008084815481106200015a576200015962000b20565b5b90600052602060002001548152602001908152602001600020819055508581815181106200018d576200018c62000b20565b5b602002602001015160046000808481548110620001af57620001ae62000b20565b5b9060005260206000200154815260200190815260200160002081905550848181518110620001e257620001e162000b20565b5b60200260200101516005600080848154811062000204576200020362000b20565b5b906000526020600020015481526020019081526020016000208190555083818151811062000237576200023662000b20565b5b60200260200101516003600080848154811062000259576200025862000b20565b5b90600052602060002001548152602001908152602001600020819055508281815181106200028c576200028b62000b20565b5b6020026020010151600f6000808481548110620002ae57620002ad62000b20565b5b9060005260206000200154815260200190815260200160002081905550818181518110620002e157620002e062000b20565b5b60200260200101516010600080848154811062000303576200030262000b20565b5b90600052602060002001548152602001908152602001600020819055506001600260008084815481106200033c576200033b62000b20565b5b9060005260206000200154815260200190815260200160002060006101000a81548160ff0219169083151502179055508080620003799062000a74565b915050620000b7565b50505050505050505062000c1f565b8280546200039f9062000a08565b90600052602060002090601f016020900481019282620003c357600085556200040f565b82601f10620003de57805160ff19168380011785556200040f565b828001600101855582156200040f579182015b828111156200040e578251825591602001919060010190620003f1565b5b5090506200041e919062000474565b5090565b82805482825590600052602060002090810192821562000461579160200282015b828111156200046057825182559160200191906001019062000443565b5b50905062000470919062000493565b5090565b5b808211156200048f57600081600090555060010162000475565b5090565b5b80821115620004ae57600081600090555060010162000494565b5090565b6000620004c9620004c384620008e5565b620008bc565b90508083825260208201905082856020860282011115620004ef57620004ee62000b83565b5b60005b8581101562000523578162000508888262000670565b845260208401935060208301925050600181019050620004f2565b5050509392505050565b6000620005446200053e8462000914565b620008bc565b905080838252602082019050828560208602820111156200056a576200056962000b83565b5b60005b858110156200059e5781620005838882620006ba565b8452602084019350602083019250506001810190506200056d565b5050509392505050565b6000620005bf620005b98462000943565b620008bc565b905082815260208101848484011115620005de57620005dd62000b88565b5b620005eb848285620009d2565b509392505050565b600081519050620006048162000bd1565b92915050565b600082601f83011262000622576200062162000b7e565b5b815162000634848260208601620004b2565b91505092915050565b600082601f83011262000655576200065462000b7e565b5b8151620006678482602086016200052d565b91505092915050565b600081519050620006818162000beb565b92915050565b600082601f8301126200069f576200069e62000b7e565b5b8151620006b1848260208601620005a8565b91505092915050565b600081519050620006cb8162000c05565b92915050565b600080600080600080600080610100898b031215620006f557620006f462000b92565b5b600089015167ffffffffffffffff81111562000716576200071562000b8d565b5b620007248b828c0162000687565b9850506020620007378b828c01620005f3565b975050604089015167ffffffffffffffff8111156200075b576200075a62000b8d565b5b620007698b828c016200060a565b965050606089015167ffffffffffffffff8111156200078d576200078c62000b8d565b5b6200079b8b828c016200063d565b955050608089015167ffffffffffffffff811115620007bf57620007be62000b8d565b5b620007cd8b828c016200063d565b94505060a089015167ffffffffffffffff811115620007f157620007f062000b8d565b5b620007ff8b828c016200063d565b93505060c089015167ffffffffffffffff81111562000823576200082262000b8d565b5b620008318b828c016200063d565b92505060e089015167ffffffffffffffff81111562000855576200085462000b8d565b5b620008638b828c016200063d565b9150509295985092959890939650565b60006200088260048362000979565b91506200088f8262000ba8565b602082019050919050565b60006020820190508181036000830152620008b58162000873565b9050919050565b6000620008c8620008db565b9050620008d6828262000a3e565b919050565b6000604051905090565b600067ffffffffffffffff82111562000903576200090262000b4f565b5b602082029050602081019050919050565b600067ffffffffffffffff82111562000932576200093162000b4f565b5b602082029050602081019050919050565b600067ffffffffffffffff82111562000961576200096062000b4f565b5b6200096c8262000b97565b9050602081019050919050565b600082825260208201905092915050565b60006200099782620009a8565b9050919050565b6000819050919050565b600073ffffffffffffffffffffffffffffffffffffffff82169050919050565b6000819050919050565b60005b83811015620009f2578082015181840152602081019050620009d5565b8381111562000a02576000848401525b50505050565b6000600282049050600182168062000a2157607f821691505b6020821081141562000a385762000a3762000af1565b5b50919050565b62000a498262000b97565b810181811067ffffffffffffffff8211171562000a6b5762000a6a62000b4f565b5b80604052505050565b600062000a8182620009c8565b91507fffffffffffffffffffffffffffffffffffffffffffffffffffffffffffffffff82141562000ab75762000ab662000ac2565b5b600182019050919050565b7f4e487b7100000000000000000000000000000000000000000000000000000000600052601160045260246000fd5b7f4e487b7100000000000000000000000000000000000000000000000000000000600052602260045260246000fd5b7f4e487b7100000000000000000000000000000000000000000000000000000000600052603260045260246000fd5b7f4e487b7100000000000000000000000000000000000000000000000000000000600052604160045260246000fd5b600080fd5b600080fd5b600080fd5b600080fd5b600080fd5b6000601f19601f8301169050919050565b7f4455504500000000000000000000000000000000000000000000000000000000600082015250565b62000bdc816200098a565b811462000be857600080fd5b50565b62000bf6816200099e565b811462000c0257600080fd5b50565b62000c1081620009c8565b811462000c1c57600080fd5b50565b612eb58062000c2f6000396000f3fe6080604052600436106101d85760003560e01c8063677342ce11610102578063c516927511610095578063e04d78b011610064578063e04d78b014610796578063e5a65259146107d3578063f616ce3c14610810578063f96e4e4a1461083b576101d8565b8063c5169275146106d7578063ceb4bf5014610700578063d5c765281461073d578063dbbc63ef1461077a576101d8565b80637e2c6e3b116100d15780637e2c6e3b1461060b57806385848a12146106345780638f39991e1461065d578063ac32917d1461069a576101d8565b8063677342ce1461051757806367d42a8b146105545780636cd65a97146105915780637acc0b20146105ce576101d8565b806316835a071161017a5780635be2c43c116101495780635be2c43c146104235780635c36901c146104605780635f9ed34e1461049d57806363950125146104da576101d8565b806316835a071461032e57806317afb0ee1461036c57806331640096146103a95780634424979a146103e6576101d8565b806306fdde03116101b657806306fdde031461025e57806309101b95146102895780630c27242d146102b45780630f689083146102f1576101d8565b806302ee3a52146101dd57806305f02ff21461020857806306b1c77714610233575b600080fd5b3480156101e957600080fd5b506101f2610878565b6040516101ff9190612460565b60405180910390f35b34801561021457600080fd5b5061021d6108d0565b60405161022a91906123ec565b60405180910390f35b34801561023f57600080fd5b506102486108e8565b604051610255919061271e565b60405180910390f35b34801561026a57600080fd5b506102736108ee565b60405161028091906124fc565b60405180910390f35b34801561029557600080fd5b5061029e61097c565b6040516102ab919061271e565b60405180910390f35b3480156102c057600080fd5b506102db60048036038101906102d69190611e1a565b610982565b6040516102e8919061271e565b60405180910390f35b3480156102fd57600080fd5b5061031860048036038101906103139190611e1a565b61099a565b604051610325919061271e565b60405180910390f35b34801561033a57600080fd5b5061035560048036038101906103509190611e47565b6109b2565b6040516103639291906124b8565b60405180910390f35b34801561037857600080fd5b50610393600480360381019061038e9190611e1a565b610a6a565b6040516103a09190612482565b60405180910390f35b3480156103b557600080fd5b506103d060048036038101906103cb9190611f47565b610aa1565b6040516103dd919061271e565b60405180910390f35b3480156103f257600080fd5b5061040d60048036038101906104089190611e47565b610ac4565b60405161041a919061271e565b60405180910390f35b34801561042f57600080fd5b5061044a60048036038101906104459190611ec7565b610ae9565b604051610457919061271e565b60405180910390f35b34801561046c57600080fd5b5061048760048036038101906104829190611e1a565b610b77565b604051610494919061249d565b60405180910390f35b3480156104a957600080fd5b506104c460048036038101906104bf9190611e1a565b610b97565b6040516104d1919061271e565b60405180910390f35b3480156104e657600080fd5b5061050160048036038101906104fc9190611e1a565b610baf565b60405161050e919061271e565b60405180910390f35b34801561052357600080fd5b5061053e60048036038101906105399190611f1a565b610bc7565b60405161054b919061271e565b60405180910390f35b34801561056057600080fd5b5061057b60048036038101906105769190611e1a565b610c24565b604051610588919061271e565b60405180910390f35b34801561059d57600080fd5b506105b860048036038101906105b39190611e47565b610c3c565b6040516105c5919061271e565b60405180910390f35b3480156105da57600080fd5b506105f560048036038101906105f09190611f1a565b610c61565b60405161060291906124e1565b60405180910390f35b34801561061757600080fd5b50610632600480360381019061062d9190611e87565b610c85565b005b34801561064057600080fd5b5061065b60048036038101906106569190611e87565b610f53565b005b34801561066957600080fd5b50610684600480360381019061067f9190611e1a565b6112eb565b604051610691919061249d565b60405180910390f35b3480156106a657600080fd5b506106c160048036038101906106bc9190611e47565b61134d565b6040516106ce919061271e565b60405180910390f35b3480156106e357600080fd5b506106fe60048036038101906106f99190611dad565b611372565b005b34801561070c57600080fd5b5061072760048036038101906107229190611e1a565b6113f9565b604051610734919061271e565b60405180910390f35b34801561074957600080fd5b50610764600480360381019061075f9190611e1a565b611416565b604051610771919061271e565b60405180910390f35b610794600480360381019061078f9190611e1a565b61142e565b005b3480156107a257600080fd5b506107bd60048036038101906107b89190611e1a565b61184a565b6040516107ca919061271e565b60405180910390f35b3480156107df57600080fd5b506107fa60048036038101906107f59190611e87565b611862565b604051610807919061271e565b60405180910390f35b34801561081c57600080fd5b50610825611966565b60405161083291906123ec565b60405180910390f35b34801561084757600080fd5b50610862600480360381019061085d9190611e1a565b61198c565b60405161086f919061243e565b60405180910390f35b606060008054806020026020016040519081016040528092919081815260200182805480156108c657602002820191906000526020600020905b8154815260200190600101908083116108b2575b5050505050905090565b739b00b2a3514cc05ea9957ad5e4d279d724a81afb81565b60085481565b600780546108fb90612999565b80601f016020809104026020016040519081016040528092919081815260200182805461092790612999565b80156109745780601f1061094957610100808354040283529160200191610974565b820191906000526020600020905b81548152906001019060200180831161095757829003601f168201915b505050505081565b60095481565b60066020528060005260406000206000915090505481565b600f6020528060005260406000206000915090505481565b60008060006109d2600d6000878152602001908152602001600020611a95565b905060008060005b83811015610a59578673ffffffffffffffffffffffffffffffffffffffff16610a1e82600d60008c8152602001908152602001600020611aaa90919063ffffffff16565b73ffffffffffffffffffffffffffffffffffffffff161415610a465760019150809250610a59565b8080610a51906129cb565b9150506109da565b818395509550505050509250929050565b610a72611d37565b604051806040016040528042815260200160036000858152602001908152602001600020548152509050919050565b60006103e88284610ab29190612886565b610abc9190612855565b905092915050565b600c602052816000526040600020602052806000526040600020600091509150505481565b600080600f60008681526020019081526020016000205490506000600560008781526020019081526020016000205490506000600190505b85811015610b6a57610b4a8360048785610b3b9190612886565b610b459190612855565b610aa1565b83610b5591906127ff565b92508080610b62906129cb565b915050610b21565b5081925050509392505050565b60026020528060005260406000206000915054906101000a900460ff1681565b60056020528060005260406000206000915090505481565b60046020528060005260406000206000915090505481565b6000806002600184610bd991906127ff565b610be39190612855565b90508291505b81811015610c1e578091506002818285610c039190612855565b610c0d91906127ff565b610c179190612855565b9050610be9565b50919050565b60036020528060005260406000206000915090505481565b600a602052816000526040600020602052806000526040600020600091509150505481565b60008181548110610c7157600080fd5b906000526020600020016000915090505481565b600033905060006006600085815260200190815260200160002054905060008111610ce5576040517f08c379a0000000000000000000000000000000000000000000000000000000008152600401610cdc906126de565b60405180910390fd5b6002600085815260200190815260200160002060009054906101000a900460ff16610d45576040517f08c379a0000000000000000000000000000000000000000000000000000000008152600401610d3c9061263e565b60405180910390fd5b42600360008681526020019081526020016000205410610d9a576040517f08c379a0000000000000000000000000000000000000000000000000000000008152600401610d91906125de565b60405180910390fd5b600080610da786856109b2565b9150915081610deb576040517f08c379a0000000000000000000000000000000000000000000000000000000008152600401610de29061265e565b60405180910390fd5b6000610df78783611862565b905080861015610e3c576040517f08c379a0000000000000000000000000000000000000000000000000000000008152600401610e339061269e565b60405180910390fd5b600160009054906101000a900473ffffffffffffffffffffffffffffffffffffffff1673ffffffffffffffffffffffffffffffffffffffff166323b872dd33739b00b2a3514cc05ea9957ad5e4d279d724a81afb846040518463ffffffff1660e01b8152600401610eaf93929190612407565b602060405180830381600087803b158015610ec957600080fd5b505af1158015610edd573d6000803e3d6000fd5b505050506040513d601f19601f82011682018060405250810190610f019190611ded565b610f40576040517f08c379a0000000000000000000000000000000000000000000000000000000008152600401610f379061259e565b60405180910390fd5b610f4a8588611372565b50505050505050565b600033905060006006600085815260200190815260200160002054905060008111610fb3576040517f08c379a0000000000000000000000000000000000000000000000000000000008152600401610faa906126de565b60405180910390fd5b6002600085815260200190815260200160002060009054906101000a900460ff16611013576040517f08c379a000000000000000000000000000000000000000000000000000000000815260040161100a9061263e565b60405180910390fd5b42600360008681526020019081526020016000205411611068576040517f08c379a000000000000000000000000000000000000000000000000000000000815260040161105f9061267e565b60405180910390fd5b611071846112eb565b6110b0576040517f08c379a00000000000000000000000000000000000000000000000000000000081526004016110a7906126fe565b60405180910390fd5b6110d582600d6000878152602001908152602001600020611ac490919063ffffffff16565b15611115576040517f08c379a000000000000000000000000000000000000000000000000000000000815260040161110c906126be565b60405180910390fd5b6000600a60106000878152602001908152602001600020546111379190612855565b90508084101561117c576040517f08c379a00000000000000000000000000000000000000000000000000000000081526004016111739061269e565b60405180910390fd5b600160009054906101000a900473ffffffffffffffffffffffffffffffffffffffff1673ffffffffffffffffffffffffffffffffffffffff166323b872dd33739b00b2a3514cc05ea9957ad5e4d279d724a81afb846040518463ffffffff1660e01b81526004016111ef93929190612407565b602060405180830381600087803b15801561120957600080fd5b505af115801561121d573d6000803e3d6000fd5b505050506040513d601f19601f820116820180604052508101906112419190611ded565b611280576040517f08c379a00000000000000000000000000000000000000000000000000000000081526004016112779061259e565b60405180910390fd5b6112a583600d6000888152602001908152602001600020611af490919063ffffffff16565b6112e4576040517f08c379a00000000000000000000000000000000000000000000000000000000081526004016112db906125be565b60405180910390fd5b5050505050565b6000806004600084815260200190815260200160002054905060006006600085815260200190815260200160002054905081611338600d6000878152602001908152602001600020611a95565b8261134391906127ff565b1092505050919050565b600b602052816000526040600020602052806000526040600020600091509150505481565b600060066000838152602001908152602001600020549050600081116113cd576040517f08c379a00000000000000000000000000000000000000000000000000000000081526004016113c49061261e565b60405180910390fd5b6001816113da91906127ff565b9050806006600084815260200190815260200160002081905550505050565b6000600e6000838152602001908152602001600020549050919050565b60106020528060005260406000206000915090505481565b60003390506000600660008481526020019081526020016000205490506000811161148e576040517f08c379a00000000000000000000000000000000000000000000000000000000081526004016114859061261e565b60405180910390fd5b6002600084815260200190815260200160002060009054906101000a900460ff166114ee576040517f08c379a00000000000000000000000000000000000000000000000000000000081526004016114e59061253e565b60405180910390fd5b42600360008581526020019081526020016000205410611543576040517f08c379a000000000000000000000000000000000000000000000000000000000815260040161153a906125de565b60405180910390fd5b61154c836112eb565b61158b576040517f08c379a00000000000000000000000000000000000000000000000000000000081526004016115829061257e565b60405180910390fd5b6000600d600085815260200190815260200160002090506115b58382611ac490919063ffffffff16565b156115cf576115cd8382611b2490919063ffffffff16565b505b60006115dd85846004610ae9565b905060006115ed86856003610ae9565b905081811115611632576040517f08c379a00000000000000000000000000000000000000000000000000000000081526004016116299061251e565b60405180910390fd5b81341015611675576040517f08c379a000000000000000000000000000000000000000000000000000000000815260040161166c9061269e565b60405180910390fd5b6000739b00b2a3514cc05ea9957ad5e4d279d724a81afb73ffffffffffffffffffffffffffffffffffffffff16836040516116af906123d7565b60006040518083038185875af1925050503d80600081146116ec576040519150601f19603f3d011682016040523d82523d6000602084013e6116f1565b606091505b5050905080611735576040517f08c379a000000000000000000000000000000000000000000000000000000000815260040161172c9061255e565b60405180910390fd5b818361174191906128e0565b600e6000898152602001908152602001600020600082825461176391906127ff565b925050819055506117748688611372565b6000833461178291906128e0565b11156118415760003373ffffffffffffffffffffffffffffffffffffffff1684346117ad91906128e0565b6040516117b9906123d7565b60006040518083038185875af1925050503d80600081146117f6576040519150601f19603f3d011682016040523d82523d6000602084013e6117fb565b606091505b505090508061183f576040517f08c379a0000000000000000000000000000000000000000000000000000000008152600401611836906125fe565b60405180910390fd5b505b50505050505050565b600e6020528060005260406000206000915090505481565b600080611880600d6000868152602001908152602001600020611a95565b905060006002600e6000878152602001908152602001600020546118a49190612855565b9050600082826118b49190612855565b905060006118d8600187866118c991906128e0565b6118d391906127ff565b610bc7565b905060006118f16001866118ec91906127ff565b610bc7565b9050600081836119019190612855565b8561190c9190612886565b90506000601060008b8152602001908152602001600020549050600a816119339190612855565b8161193e91906128e0565b905084828261194d91906127ff565b61195791906127ff565b97505050505050505092915050565b600160009054906101000a900473ffffffffffffffffffffffffffffffffffffffff1681565b606060006119ab600d6000858152602001908152602001600020611a95565b905060008167ffffffffffffffff8111156119c9576119c8612aff565b5b6040519080825280602002602001820160405280156119f75781602001602082028036833780820191505090505b50905060005b82811015611a8a57611a2a81600d6000888152602001908152602001600020611aaa90919063ffffffff16565b828281518110611a3d57611a3c612ad0565b5b602002602001019073ffffffffffffffffffffffffffffffffffffffff16908173ffffffffffffffffffffffffffffffffffffffff16815250508080611a82906129cb565b9150506119fd565b819350505050919050565b6000611aa382600001611b54565b9050919050565b6000611ab98360000183611b65565b60001c905092915050565b6000611aec836000018373ffffffffffffffffffffffffffffffffffffffff1660001b611b90565b905092915050565b6000611b1c836000018373ffffffffffffffffffffffffffffffffffffffff1660001b611bb3565b905092915050565b6000611b4c836000018373ffffffffffffffffffffffffffffffffffffffff1660001b611c23565b905092915050565b600081600001805490509050919050565b6000826000018281548110611b7d57611b7c612ad0565b5b9060005260206000200154905092915050565b600080836001016000848152602001908152602001600020541415905092915050565b6000611bbf8383611b90565b611c18578260000182908060018154018082558091505060019003906000526020600020016000909190919091505582600001805490508360010160008481526020019081526020016000208190555060019050611c1d565b600090505b92915050565b60008083600101600084815260200190815260200160002054905060008114611d2b576000600182611c5591906128e0565b9050600060018660000180549050611c6d91906128e0565b9050818114611cdc576000866000018281548110611c8e57611c8d612ad0565b5b9060005260206000200154905080876000018481548110611cb257611cb1612ad0565b5b90600052602060002001819055508387600101600083815260200190815260200160002081905550505b85600001805480611cf057611cef612aa1565b5b600190038181906000526020600020016000905590558560010160008681526020019081526020016000206000905560019350505050611d31565b60009150505b92915050565b6040518060400160405280600290602082028036833780820191505090505090565b600081359050611d6881612e23565b92915050565b600081519050611d7d81612e3a565b92915050565b600081359050611d9281612e51565b92915050565b600081359050611da781612e68565b92915050565b60008060408385031215611dc457611dc3612b2e565b5b6000611dd285828601611d59565b9250506020611de385828601611d83565b9150509250929050565b600060208284031215611e0357611e02612b2e565b5b6000611e1184828501611d6e565b91505092915050565b600060208284031215611e3057611e2f612b2e565b5b6000611e3e84828501611d83565b91505092915050565b60008060408385031215611e5e57611e5d612b2e565b5b6000611e6c85828601611d83565b9250506020611e7d85828601611d59565b9150509250929050565b60008060408385031215611e9e57611e9d612b2e565b5b6000611eac85828601611d83565b9250506020611ebd85828601611d98565b9150509250929050565b600080600060608486031215611ee057611edf612b2e565b5b6000611eee86828701611d83565b9350506020611eff86828701611d98565b9250506040611f1086828701611d98565b9150509250925092565b600060208284031215611f3057611f2f612b2e565b5b6000611f3e84828501611d98565b91505092915050565b60008060408385031215611f5e57611f5d612b2e565b5b6000611f6c85828601611d98565b9250506020611f7d85828601611d98565b9150509250929050565b6000611f938383611fcf565b60208301905092915050565b6000611fab838361210f565b60208301905092915050565b6000611fc383836123b9565b60208301905092915050565b611fd881612914565b82525050565b611fe781612914565b82525050565b6000611ff882612763565b61200281856127b6565b935061200d83612739565b8060005b8381101561203e5781516120258882611f87565b97506120308361278f565b925050600181019050612011565b5085935050505092915050565b60006120568261276e565b61206081856127c7565b935061206b83612749565b8060005b8381101561209c5781516120838882611f9f565b975061208e8361279c565b92505060018101905061206f565b5085935050505092915050565b6120b281612779565b6120bc81846127d8565b92506120c782612759565b8060005b838110156120f85781516120df8782611fb7565b96506120ea836127a9565b9250506001810190506120cb565b505050505050565b61210981612926565b82525050565b61211881612932565b82525050565b61212781612932565b82525050565b600061213882612784565b61214281856127ee565b9350612152818560208601612966565b61215b81612b33565b840191505092915050565b6000612173600b836127ee565b915061217e82612b44565b602082019050919050565b6000612196601a836127ee565b91506121a182612b6d565b602082019050919050565b60006121b9600e836127ee565b91506121c482612b96565b602082019050919050565b60006121dc600c836127ee565b91506121e782612bbf565b602082019050919050565b60006121ff600f836127ee565b915061220a82612be8565b602082019050919050565b6000612222601e836127ee565b915061222d82612c11565b602082019050919050565b60006122456018836127ee565b915061225082612c3a565b602082019050919050565b60006122686015836127ee565b915061227382612c63565b602082019050919050565b600061228b600b836127ee565b915061229682612c8c565b602082019050919050565b60006122ae602d836127ee565b91506122b982612cb5565b604082019050919050565b60006122d16011836127ee565b91506122dc82612d04565b602082019050919050565b60006122f46018836127ee565b91506122ff82612d2d565b602082019050919050565b6000612317600a836127ee565b915061232282612d56565b602082019050919050565b600061233a6000836127e3565b915061234582612d7f565b600082019050919050565b600061235d6028836127ee565b915061236882612d82565b604082019050919050565b6000612380601e836127ee565b915061238b82612dd1565b602082019050919050565b60006123a36020836127ee565b91506123ae82612dfa565b602082019050919050565b6123c28161295c565b82525050565b6123d18161295c565b82525050565b60006123e28261232d565b9150819050919050565b60006020820190506124016000830184611fde565b92915050565b600060608201905061241c6000830186611fde565b6124296020830185611fde565b61243660408301846123c8565b949350505050565b600060208201905081810360008301526124588184611fed565b905092915050565b6000602082019050818103600083015261247a818461204b565b905092915050565b600060408201905061249760008301846120a9565b92915050565b60006020820190506124b26000830184612100565b92915050565b60006040820190506124cd6000830185612100565b6124da60208301846123c8565b9392505050565b60006020820190506124f6600083018461211e565b92915050565b60006020820190508181036000830152612516818461212d565b905092915050565b6000602082019050818103600083015261253781612166565b9050919050565b6000602082019050818103600083015261255781612189565b9050919050565b60006020820190508181036000830152612577816121ac565b9050919050565b60006020820190508181036000830152612597816121cf565b9050919050565b600060208201905081810360008301526125b7816121f2565b9050919050565b600060208201905081810360008301526125d781612215565b9050919050565b600060208201905081810360008301526125f781612238565b9050919050565b600060208201905081810360008301526126178161225b565b9050919050565b600060208201905081810360008301526126378161227e565b9050919050565b60006020820190508181036000830152612657816122a1565b9050919050565b60006020820190508181036000830152612677816122c4565b9050919050565b60006020820190508181036000830152612697816122e7565b9050919050565b600060208201905081810360008301526126b78161230a565b9050919050565b600060208201905081810360008301526126d781612350565b9050919050565b600060208201905081810360008301526126f781612373565b9050919050565b6000602082019050818103600083015261271781612396565b9050919050565b600060208201905061273360008301846123c8565b92915050565b6000819050602082019050919050565b6000819050602082019050919050565b6000819050919050565b600081519050919050565b600081519050919050565b600060029050919050565b600081519050919050565b6000602082019050919050565b6000602082019050919050565b6000602082019050919050565b600082825260208201905092915050565b600082825260208201905092915050565b600081905092915050565b600081905092915050565b600082825260208201905092915050565b600061280a8261295c565b91506128158361295c565b9250827fffffffffffffffffffffffffffffffffffffffffffffffffffffffffffffffff0382111561284a57612849612a14565b5b828201905092915050565b60006128608261295c565b915061286b8361295c565b92508261287b5761287a612a43565b5b828204905092915050565b60006128918261295c565b915061289c8361295c565b9250817fffffffffffffffffffffffffffffffffffffffffffffffffffffffffffffffff04831182151516156128d5576128d4612a14565b5b828202905092915050565b60006128eb8261295c565b91506128f68361295c565b92508282101561290957612908612a14565b5b828203905092915050565b600061291f8261293c565b9050919050565b60008115159050919050565b6000819050919050565b600073ffffffffffffffffffffffffffffffffffffffff82169050919050565b6000819050919050565b60005b83811015612984578082015181840152602081019050612969565b83811115612993576000848401525b50505050565b600060028204905060018216806129b157607f821691505b602082108114156129c5576129c4612a72565b5b50919050565b60006129d68261295c565b91507fffffffffffffffffffffffffffffffffffffffffffffffffffffffffffffffff821415612a0957612a08612a14565b5b600182019050919050565b7f4e487b7100000000000000000000000000000000000000000000000000000000600052601160045260246000fd5b7f4e487b7100000000000000000000000000000000000000000000000000000000600052601260045260246000fd5b7f4e487b7100000000000000000000000000000000000000000000000000000000600052602260045260246000fd5b7f4e487b7100000000000000000000000000000000000000000000000000000000600052603160045260246000fd5b7f4e487b7100000000000000000000000000000000000000000000000000000000600052603260045260246000fd5b7f4e487b7100000000000000000000000000000000000000000000000000000000600052604160045260246000fd5b600080fd5b6000601f19601f8301169050919050565b7f5745495244204552524f52000000000000000000000000000000000000000000600082015250565b7f50524f445543542053414c45204953204e4f5420414354495645000000000000600082015250565b7f636f756c64206e6f742073656e64000000000000000000000000000000000000600082015250565b7f4f5554204f462053544f434b0000000000000000000000000000000000000000600082015250565b7f5472616e73666572206661696c65640000000000000000000000000000000000600082015250565b7f44616f6d61727450726f647563744a61723a205745495244204552524f520000600082015250565b7f50524f44554354204e4f542052454c4541534544205945540000000000000000600082015250565b7f636f756c64206e6f742073656e6420726566756e640000000000000000000000600082015250565b7f50524f4455435420343034000000000000000000000000000000000000000000600082015250565b7f44616f6d61727450726f647563744a61723a2050524f445543542053414c452060008201527f4953204e4f542041435449564500000000000000000000000000000000000000602082015250565b7f594f5552204e4f5420494e205155455545000000000000000000000000000000600082015250565b7f50524f4455435420414c52454144592052454c45415345440000000000000000600082015250565b7f4e4f5420454e4f55474800000000000000000000000000000000000000000000600082015250565b50565b7f44616f6d61727450726f647563744a61723a20594f555220414c52454144592060008201527f494e205155455545000000000000000000000000000000000000000000000000602082015250565b7f44616f6d61727450726f647563744a61723a2050524f44554354203430340000600082015250565b7f44616f6d61727450726f647563744a61723a2051554555452049532046554c4c600082015250565b612e2c81612914565b8114612e3757600080fd5b50565b612e4381612926565b8114612e4e57600080fd5b50565b612e5a81612932565b8114612e6557600080fd5b50565b612e718161295c565b8114612e7c57600080fd5b5056fea26469706673582212203b1a15a5fafc2e4cc4ee78fe4692b2756644fa16fd6ef2247e27387e4744561964736f6c63430008070033",
			"opcodes": "PUSH1 0x80 PUSH1 0x40 MSTORE PUSH1 0x1E PUSH1 0x8 SSTORE PUSH1 0x32 PUSH1 0x9 SSTORE CALLVALUE DUP1 ISZERO PUSH3 0x1B JUMPI PUSH1 0x0 DUP1 REVERT JUMPDEST POP PUSH1 0x40 MLOAD PUSH3 0x3AE4 CODESIZE SUB DUP1 PUSH3 0x3AE4 DUP4 CODECOPY DUP2 DUP2 ADD PUSH1 0x40 MSTORE DUP2 ADD SWAP1 PUSH3 0x41 SWAP2 SWAP1 PUSH3 0x6D1 JUMP JUMPDEST DUP8 PUSH1 0x7 SWAP1 DUP1 MLOAD SWAP1 PUSH1 0x20 ADD SWAP1 PUSH3 0x59 SWAP3 SWAP2 SWAP1 PUSH3 0x391 JUMP JUMPDEST POP DUP7 PUSH1 0x1 PUSH1 0x0 PUSH2 0x100 EXP DUP2 SLOAD DUP2 PUSH20 0xFFFFFFFFFFFFFFFFFFFFFFFFFFFFFFFFFFFFFFFF MUL NOT AND SWAP1 DUP4 PUSH20 0xFFFFFFFFFFFFFFFFFFFFFFFFFFFFFFFFFFFFFFFF AND MUL OR SWAP1 SSTORE POP DUP6 PUSH1 0x0 SWAP1 DUP1 MLOAD SWAP1 PUSH1 0x20 ADD SWAP1 PUSH3 0xB3 SWAP3 SWAP2 SWAP1 PUSH3 0x422 JUMP JUMPDEST POP PUSH1 0x0 JUMPDEST PUSH1 0x0 DUP1 SLOAD SWAP1 POP DUP2 LT ISZERO PUSH3 0x382 JUMPI PUSH1 0x0 PUSH1 0x6 PUSH1 0x0 DUP1 DUP5 DUP2 SLOAD DUP2 LT PUSH3 0xE1 JUMPI PUSH3 0xE0 PUSH3 0xB20 JUMP JUMPDEST JUMPDEST SWAP1 PUSH1 0x0 MSTORE PUSH1 0x20 PUSH1 0x0 KECCAK256 ADD SLOAD DUP2 MSTORE PUSH1 0x20 ADD SWAP1 DUP2 MSTORE PUSH1 0x20 ADD PUSH1 0x0 KECCAK256 SLOAD EQ PUSH3 0x13E JUMPI PUSH1 0x40 MLOAD PUSH32 0x8C379A000000000000000000000000000000000000000000000000000000000 DUP2 MSTORE PUSH1 0x4 ADD PUSH3 0x135 SWAP1 PUSH3 0x89A JUMP JUMPDEST PUSH1 0x40 MLOAD DUP1 SWAP2 SUB SWAP1 REVERT JUMPDEST PUSH1 0x1 PUSH1 0x6 PUSH1 0x0 DUP1 DUP5 DUP2 SLOAD DUP2 LT PUSH3 0x15A JUMPI PUSH3 0x159 PUSH3 0xB20 JUMP JUMPDEST JUMPDEST SWAP1 PUSH1 0x0 MSTORE PUSH1 0x20 PUSH1 0x0 KECCAK256 ADD SLOAD DUP2 MSTORE PUSH1 0x20 ADD SWAP1 DUP2 MSTORE PUSH1 0x20 ADD PUSH1 0x0 KECCAK256 DUP2 SWAP1 SSTORE POP DUP6 DUP2 DUP2 MLOAD DUP2 LT PUSH3 0x18D JUMPI PUSH3 0x18C PUSH3 0xB20 JUMP JUMPDEST JUMPDEST PUSH1 0x20 MUL PUSH1 0x20 ADD ADD MLOAD PUSH1 0x4 PUSH1 0x0 DUP1 DUP5 DUP2 SLOAD DUP2 LT PUSH3 0x1AF JUMPI PUSH3 0x1AE PUSH3 0xB20 JUMP JUMPDEST JUMPDEST SWAP1 PUSH1 0x0 MSTORE PUSH1 0x20 PUSH1 0x0 KECCAK256 ADD SLOAD DUP2 MSTORE PUSH1 0x20 ADD SWAP1 DUP2 MSTORE PUSH1 0x20 ADD PUSH1 0x0 KECCAK256 DUP2 SWAP1 SSTORE POP DUP5 DUP2 DUP2 MLOAD DUP2 LT PUSH3 0x1E2 JUMPI PUSH3 0x1E1 PUSH3 0xB20 JUMP JUMPDEST JUMPDEST PUSH1 0x20 MUL PUSH1 0x20 ADD ADD MLOAD PUSH1 0x5 PUSH1 0x0 DUP1 DUP5 DUP2 SLOAD DUP2 LT PUSH3 0x204 JUMPI PUSH3 0x203 PUSH3 0xB20 JUMP JUMPDEST JUMPDEST SWAP1 PUSH1 0x0 MSTORE PUSH1 0x20 PUSH1 0x0 KECCAK256 ADD SLOAD DUP2 MSTORE PUSH1 0x20 ADD SWAP1 DUP2 MSTORE PUSH1 0x20 ADD PUSH1 0x0 KECCAK256 DUP2 SWAP1 SSTORE POP DUP4 DUP2 DUP2 MLOAD DUP2 LT PUSH3 0x237 JUMPI PUSH3 0x236 PUSH3 0xB20 JUMP JUMPDEST JUMPDEST PUSH1 0x20 MUL PUSH1 0x20 ADD ADD MLOAD PUSH1 0x3 PUSH1 0x0 DUP1 DUP5 DUP2 SLOAD DUP2 LT PUSH3 0x259 JUMPI PUSH3 0x258 PUSH3 0xB20 JUMP JUMPDEST JUMPDEST SWAP1 PUSH1 0x0 MSTORE PUSH1 0x20 PUSH1 0x0 KECCAK256 ADD SLOAD DUP2 MSTORE PUSH1 0x20 ADD SWAP1 DUP2 MSTORE PUSH1 0x20 ADD PUSH1 0x0 KECCAK256 DUP2 SWAP1 SSTORE POP DUP3 DUP2 DUP2 MLOAD DUP2 LT PUSH3 0x28C JUMPI PUSH3 0x28B PUSH3 0xB20 JUMP JUMPDEST JUMPDEST PUSH1 0x20 MUL PUSH1 0x20 ADD ADD MLOAD PUSH1 0xF PUSH1 0x0 DUP1 DUP5 DUP2 SLOAD DUP2 LT PUSH3 0x2AE JUMPI PUSH3 0x2AD PUSH3 0xB20 JUMP JUMPDEST JUMPDEST SWAP1 PUSH1 0x0 MSTORE PUSH1 0x20 PUSH1 0x0 KECCAK256 ADD SLOAD DUP2 MSTORE PUSH1 0x20 ADD SWAP1 DUP2 MSTORE PUSH1 0x20 ADD PUSH1 0x0 KECCAK256 DUP2 SWAP1 SSTORE POP DUP2 DUP2 DUP2 MLOAD DUP2 LT PUSH3 0x2E1 JUMPI PUSH3 0x2E0 PUSH3 0xB20 JUMP JUMPDEST JUMPDEST PUSH1 0x20 MUL PUSH1 0x20 ADD ADD MLOAD PUSH1 0x10 PUSH1 0x0 DUP1 DUP5 DUP2 SLOAD DUP2 LT PUSH3 0x303 JUMPI PUSH3 0x302 PUSH3 0xB20 JUMP JUMPDEST JUMPDEST SWAP1 PUSH1 0x0 MSTORE PUSH1 0x20 PUSH1 0x0 KECCAK256 ADD SLOAD DUP2 MSTORE PUSH1 0x20 ADD SWAP1 DUP2 MSTORE PUSH1 0x20 ADD PUSH1 0x0 KECCAK256 DUP2 SWAP1 SSTORE POP PUSH1 0x1 PUSH1 0x2 PUSH1 0x0 DUP1 DUP5 DUP2 SLOAD DUP2 LT PUSH3 0x33C JUMPI PUSH3 0x33B PUSH3 0xB20 JUMP JUMPDEST JUMPDEST SWAP1 PUSH1 0x0 MSTORE PUSH1 0x20 PUSH1 0x0 KECCAK256 ADD SLOAD DUP2 MSTORE PUSH1 0x20 ADD SWAP1 DUP2 MSTORE PUSH1 0x20 ADD PUSH1 0x0 KECCAK256 PUSH1 0x0 PUSH2 0x100 EXP DUP2 SLOAD DUP2 PUSH1 0xFF MUL NOT AND SWAP1 DUP4 ISZERO ISZERO MUL OR SWAP1 SSTORE POP DUP1 DUP1 PUSH3 0x379 SWAP1 PUSH3 0xA74 JUMP JUMPDEST SWAP2 POP POP PUSH3 0xB7 JUMP JUMPDEST POP POP POP POP POP POP POP POP POP PUSH3 0xC1F JUMP JUMPDEST DUP3 DUP1 SLOAD PUSH3 0x39F SWAP1 PUSH3 0xA08 JUMP JUMPDEST SWAP1 PUSH1 0x0 MSTORE PUSH1 0x20 PUSH1 0x0 KECCAK256 SWAP1 PUSH1 0x1F ADD PUSH1 0x20 SWAP1 DIV DUP2 ADD SWAP3 DUP3 PUSH3 0x3C3 JUMPI PUSH1 0x0 DUP6 SSTORE PUSH3 0x40F JUMP JUMPDEST DUP3 PUSH1 0x1F LT PUSH3 0x3DE JUMPI DUP1 MLOAD PUSH1 0xFF NOT AND DUP4 DUP1 ADD OR DUP6 SSTORE PUSH3 0x40F JUMP JUMPDEST DUP3 DUP1 ADD PUSH1 0x1 ADD DUP6 SSTORE DUP3 ISZERO PUSH3 0x40F JUMPI SWAP2 DUP3 ADD JUMPDEST DUP3 DUP2 GT ISZERO PUSH3 0x40E JUMPI DUP3 MLOAD DUP3 SSTORE SWAP2 PUSH1 0x20 ADD SWAP2 SWAP1 PUSH1 0x1 ADD SWAP1 PUSH3 0x3F1 JUMP JUMPDEST JUMPDEST POP SWAP1 POP PUSH3 0x41E SWAP2 SWAP1 PUSH3 0x474 JUMP JUMPDEST POP SWAP1 JUMP JUMPDEST DUP3 DUP1 SLOAD DUP3 DUP3 SSTORE SWAP1 PUSH1 0x0 MSTORE PUSH1 0x20 PUSH1 0x0 KECCAK256 SWAP1 DUP2 ADD SWAP3 DUP3 ISZERO PUSH3 0x461 JUMPI SWAP2 PUSH1 0x20 MUL DUP3 ADD JUMPDEST DUP3 DUP2 GT ISZERO PUSH3 0x460 JUMPI DUP3 MLOAD DUP3 SSTORE SWAP2 PUSH1 0x20 ADD SWAP2 SWAP1 PUSH1 0x1 ADD SWAP1 PUSH3 0x443 JUMP JUMPDEST JUMPDEST POP SWAP1 POP PUSH3 0x470 SWAP2 SWAP1 PUSH3 0x493 JUMP JUMPDEST POP SWAP1 JUMP JUMPDEST JUMPDEST DUP1 DUP3 GT ISZERO PUSH3 0x48F JUMPI PUSH1 0x0 DUP2 PUSH1 0x0 SWAP1 SSTORE POP PUSH1 0x1 ADD PUSH3 0x475 JUMP JUMPDEST POP SWAP1 JUMP JUMPDEST JUMPDEST DUP1 DUP3 GT ISZERO PUSH3 0x4AE JUMPI PUSH1 0x0 DUP2 PUSH1 0x0 SWAP1 SSTORE POP PUSH1 0x1 ADD PUSH3 0x494 JUMP JUMPDEST POP SWAP1 JUMP JUMPDEST PUSH1 0x0 PUSH3 0x4C9 PUSH3 0x4C3 DUP5 PUSH3 0x8E5 JUMP JUMPDEST PUSH3 0x8BC JUMP JUMPDEST SWAP1 POP DUP1 DUP4 DUP3 MSTORE PUSH1 0x20 DUP3 ADD SWAP1 POP DUP3 DUP6 PUSH1 0x20 DUP7 MUL DUP3 ADD GT ISZERO PUSH3 0x4EF JUMPI PUSH3 0x4EE PUSH3 0xB83 JUMP JUMPDEST JUMPDEST PUSH1 0x0 JUMPDEST DUP6 DUP2 LT ISZERO PUSH3 0x523 JUMPI DUP2 PUSH3 0x508 DUP9 DUP3 PUSH3 0x670 JUMP JUMPDEST DUP5 MSTORE PUSH1 0x20 DUP5 ADD SWAP4 POP PUSH1 0x20 DUP4 ADD SWAP3 POP POP PUSH1 0x1 DUP2 ADD SWAP1 POP PUSH3 0x4F2 JUMP JUMPDEST POP POP POP SWAP4 SWAP3 POP POP POP JUMP JUMPDEST PUSH1 0x0 PUSH3 0x544 PUSH3 0x53E DUP5 PUSH3 0x914 JUMP JUMPDEST PUSH3 0x8BC JUMP JUMPDEST SWAP1 POP DUP1 DUP4 DUP3 MSTORE PUSH1 0x20 DUP3 ADD SWAP1 POP DUP3 DUP6 PUSH1 0x20 DUP7 MUL DUP3 ADD GT ISZERO PUSH3 0x56A JUMPI PUSH3 0x569 PUSH3 0xB83 JUMP JUMPDEST JUMPDEST PUSH1 0x0 JUMPDEST DUP6 DUP2 LT ISZERO PUSH3 0x59E JUMPI DUP2 PUSH3 0x583 DUP9 DUP3 PUSH3 0x6BA JUMP JUMPDEST DUP5 MSTORE PUSH1 0x20 DUP5 ADD SWAP4 POP PUSH1 0x20 DUP4 ADD SWAP3 POP POP PUSH1 0x1 DUP2 ADD SWAP1 POP PUSH3 0x56D JUMP JUMPDEST POP POP POP SWAP4 SWAP3 POP POP POP JUMP JUMPDEST PUSH1 0x0 PUSH3 0x5BF PUSH3 0x5B9 DUP5 PUSH3 0x943 JUMP JUMPDEST PUSH3 0x8BC JUMP JUMPDEST SWAP1 POP DUP3 DUP2 MSTORE PUSH1 0x20 DUP2 ADD DUP5 DUP5 DUP5 ADD GT ISZERO PUSH3 0x5DE JUMPI PUSH3 0x5DD PUSH3 0xB88 JUMP JUMPDEST JUMPDEST PUSH3 0x5EB DUP5 DUP3 DUP6 PUSH3 0x9D2 JUMP JUMPDEST POP SWAP4 SWAP3 POP POP POP JUMP JUMPDEST PUSH1 0x0 DUP2 MLOAD SWAP1 POP PUSH3 0x604 DUP2 PUSH3 0xBD1 JUMP JUMPDEST SWAP3 SWAP2 POP POP JUMP JUMPDEST PUSH1 0x0 DUP3 PUSH1 0x1F DUP4 ADD SLT PUSH3 0x622 JUMPI PUSH3 0x621 PUSH3 0xB7E JUMP JUMPDEST JUMPDEST DUP2 MLOAD PUSH3 0x634 DUP5 DUP3 PUSH1 0x20 DUP7 ADD PUSH3 0x4B2 JUMP JUMPDEST SWAP2 POP POP SWAP3 SWAP2 POP POP JUMP JUMPDEST PUSH1 0x0 DUP3 PUSH1 0x1F DUP4 ADD SLT PUSH3 0x655 JUMPI PUSH3 0x654 PUSH3 0xB7E JUMP JUMPDEST JUMPDEST DUP2 MLOAD PUSH3 0x667 DUP5 DUP3 PUSH1 0x20 DUP7 ADD PUSH3 0x52D JUMP JUMPDEST SWAP2 POP POP SWAP3 SWAP2 POP POP JUMP JUMPDEST PUSH1 0x0 DUP2 MLOAD SWAP1 POP PUSH3 0x681 DUP2 PUSH3 0xBEB JUMP JUMPDEST SWAP3 SWAP2 POP POP JUMP JUMPDEST PUSH1 0x0 DUP3 PUSH1 0x1F DUP4 ADD SLT PUSH3 0x69F JUMPI PUSH3 0x69E PUSH3 0xB7E JUMP JUMPDEST JUMPDEST DUP2 MLOAD PUSH3 0x6B1 DUP5 DUP3 PUSH1 0x20 DUP7 ADD PUSH3 0x5A8 JUMP JUMPDEST SWAP2 POP POP SWAP3 SWAP2 POP POP JUMP JUMPDEST PUSH1 0x0 DUP2 MLOAD SWAP1 POP PUSH3 0x6CB DUP2 PUSH3 0xC05 JUMP JUMPDEST SWAP3 SWAP2 POP POP JUMP JUMPDEST PUSH1 0x0 DUP1 PUSH1 0x0 DUP1 PUSH1 0x0 DUP1 PUSH1 0x0 DUP1 PUSH2 0x100 DUP10 DUP12 SUB SLT ISZERO PUSH3 0x6F5 JUMPI PUSH3 0x6F4 PUSH3 0xB92 JUMP JUMPDEST JUMPDEST PUSH1 0x0 DUP10 ADD MLOAD PUSH8 0xFFFFFFFFFFFFFFFF DUP2 GT ISZERO PUSH3 0x716 JUMPI PUSH3 0x715 PUSH3 0xB8D JUMP JUMPDEST JUMPDEST PUSH3 0x724 DUP12 DUP3 DUP13 ADD PUSH3 0x687 JUMP JUMPDEST SWAP9 POP POP PUSH1 0x20 PUSH3 0x737 DUP12 DUP3 DUP13 ADD PUSH3 0x5F3 JUMP JUMPDEST SWAP8 POP POP PUSH1 0x40 DUP10 ADD MLOAD PUSH8 0xFFFFFFFFFFFFFFFF DUP2 GT ISZERO PUSH3 0x75B JUMPI PUSH3 0x75A PUSH3 0xB8D JUMP JUMPDEST JUMPDEST PUSH3 0x769 DUP12 DUP3 DUP13 ADD PUSH3 0x60A JUMP JUMPDEST SWAP7 POP POP PUSH1 0x60 DUP10 ADD MLOAD PUSH8 0xFFFFFFFFFFFFFFFF DUP2 GT ISZERO PUSH3 0x78D JUMPI PUSH3 0x78C PUSH3 0xB8D JUMP JUMPDEST JUMPDEST PUSH3 0x79B DUP12 DUP3 DUP13 ADD PUSH3 0x63D JUMP JUMPDEST SWAP6 POP POP PUSH1 0x80 DUP10 ADD MLOAD PUSH8 0xFFFFFFFFFFFFFFFF DUP2 GT ISZERO PUSH3 0x7BF JUMPI PUSH3 0x7BE PUSH3 0xB8D JUMP JUMPDEST JUMPDEST PUSH3 0x7CD DUP12 DUP3 DUP13 ADD PUSH3 0x63D JUMP JUMPDEST SWAP5 POP POP PUSH1 0xA0 DUP10 ADD MLOAD PUSH8 0xFFFFFFFFFFFFFFFF DUP2 GT ISZERO PUSH3 0x7F1 JUMPI PUSH3 0x7F0 PUSH3 0xB8D JUMP JUMPDEST JUMPDEST PUSH3 0x7FF DUP12 DUP3 DUP13 ADD PUSH3 0x63D JUMP JUMPDEST SWAP4 POP POP PUSH1 0xC0 DUP10 ADD MLOAD PUSH8 0xFFFFFFFFFFFFFFFF DUP2 GT ISZERO PUSH3 0x823 JUMPI PUSH3 0x822 PUSH3 0xB8D JUMP JUMPDEST JUMPDEST PUSH3 0x831 DUP12 DUP3 DUP13 ADD PUSH3 0x63D JUMP JUMPDEST SWAP3 POP POP PUSH1 0xE0 DUP10 ADD MLOAD PUSH8 0xFFFFFFFFFFFFFFFF DUP2 GT ISZERO PUSH3 0x855 JUMPI PUSH3 0x854 PUSH3 0xB8D JUMP JUMPDEST JUMPDEST PUSH3 0x863 DUP12 DUP3 DUP13 ADD PUSH3 0x63D JUMP JUMPDEST SWAP2 POP POP SWAP3 SWAP6 SWAP9 POP SWAP3 SWAP6 SWAP9 SWAP1 SWAP4 SWAP7 POP JUMP JUMPDEST PUSH1 0x0 PUSH3 0x882 PUSH1 0x4 DUP4 PUSH3 0x979 JUMP JUMPDEST SWAP2 POP PUSH3 0x88F DUP3 PUSH3 0xBA8 JUMP JUMPDEST PUSH1 0x20 DUP3 ADD SWAP1 POP SWAP2 SWAP1 POP JUMP JUMPDEST PUSH1 0x0 PUSH1 0x20 DUP3 ADD SWAP1 POP DUP2 DUP2 SUB PUSH1 0x0 DUP4 ADD MSTORE PUSH3 0x8B5 DUP2 PUSH3 0x873 JUMP JUMPDEST SWAP1 POP SWAP2 SWAP1 POP JUMP JUMPDEST PUSH1 0x0 PUSH3 0x8C8 PUSH3 0x8DB JUMP JUMPDEST SWAP1 POP PUSH3 0x8D6 DUP3 DUP3 PUSH3 0xA3E JUMP JUMPDEST SWAP2 SWAP1 POP JUMP JUMPDEST PUSH1 0x0 PUSH1 0x40 MLOAD SWAP1 POP SWAP1 JUMP JUMPDEST PUSH1 0x0 PUSH8 0xFFFFFFFFFFFFFFFF DUP3 GT ISZERO PUSH3 0x903 JUMPI PUSH3 0x902 PUSH3 0xB4F JUMP JUMPDEST JUMPDEST PUSH1 0x20 DUP3 MUL SWAP1 POP PUSH1 0x20 DUP2 ADD SWAP1 POP SWAP2 SWAP1 POP JUMP JUMPDEST PUSH1 0x0 PUSH8 0xFFFFFFFFFFFFFFFF DUP3 GT ISZERO PUSH3 0x932 JUMPI PUSH3 0x931 PUSH3 0xB4F JUMP JUMPDEST JUMPDEST PUSH1 0x20 DUP3 MUL SWAP1 POP PUSH1 0x20 DUP2 ADD SWAP1 POP SWAP2 SWAP1 POP JUMP JUMPDEST PUSH1 0x0 PUSH8 0xFFFFFFFFFFFFFFFF DUP3 GT ISZERO PUSH3 0x961 JUMPI PUSH3 0x960 PUSH3 0xB4F JUMP JUMPDEST JUMPDEST PUSH3 0x96C DUP3 PUSH3 0xB97 JUMP JUMPDEST SWAP1 POP PUSH1 0x20 DUP2 ADD SWAP1 POP SWAP2 SWAP1 POP JUMP JUMPDEST PUSH1 0x0 DUP3 DUP3 MSTORE PUSH1 0x20 DUP3 ADD SWAP1 POP SWAP3 SWAP2 POP POP JUMP JUMPDEST PUSH1 0x0 PUSH3 0x997 DUP3 PUSH3 0x9A8 JUMP JUMPDEST SWAP1 POP SWAP2 SWAP1 POP JUMP JUMPDEST PUSH1 0x0 DUP2 SWAP1 POP SWAP2 SWAP1 POP JUMP JUMPDEST PUSH1 0x0 PUSH20 0xFFFFFFFFFFFFFFFFFFFFFFFFFFFFFFFFFFFFFFFF DUP3 AND SWAP1 POP SWAP2 SWAP1 POP JUMP JUMPDEST PUSH1 0x0 DUP2 SWAP1 POP SWAP2 SWAP1 POP JUMP JUMPDEST PUSH1 0x0 JUMPDEST DUP4 DUP2 LT ISZERO PUSH3 0x9F2 JUMPI DUP1 DUP3 ADD MLOAD DUP2 DUP5 ADD MSTORE PUSH1 0x20 DUP2 ADD SWAP1 POP PUSH3 0x9D5 JUMP JUMPDEST DUP4 DUP2 GT ISZERO PUSH3 0xA02 JUMPI PUSH1 0x0 DUP5 DUP5 ADD MSTORE JUMPDEST POP POP POP POP JUMP JUMPDEST PUSH1 0x0 PUSH1 0x2 DUP3 DIV SWAP1 POP PUSH1 0x1 DUP3 AND DUP1 PUSH3 0xA21 JUMPI PUSH1 0x7F DUP3 AND SWAP2 POP JUMPDEST PUSH1 0x20 DUP3 LT DUP2 EQ ISZERO PUSH3 0xA38 JUMPI PUSH3 0xA37 PUSH3 0xAF1 JUMP JUMPDEST JUMPDEST POP SWAP2 SWAP1 POP JUMP JUMPDEST PUSH3 0xA49 DUP3 PUSH3 0xB97 JUMP JUMPDEST DUP2 ADD DUP2 DUP2 LT PUSH8 0xFFFFFFFFFFFFFFFF DUP3 GT OR ISZERO PUSH3 0xA6B JUMPI PUSH3 0xA6A PUSH3 0xB4F JUMP JUMPDEST JUMPDEST DUP1 PUSH1 0x40 MSTORE POP POP POP JUMP JUMPDEST PUSH1 0x0 PUSH3 0xA81 DUP3 PUSH3 0x9C8 JUMP JUMPDEST SWAP2 POP PUSH32 0xFFFFFFFFFFFFFFFFFFFFFFFFFFFFFFFFFFFFFFFFFFFFFFFFFFFFFFFFFFFFFFFF DUP3 EQ ISZERO PUSH3 0xAB7 JUMPI PUSH3 0xAB6 PUSH3 0xAC2 JUMP JUMPDEST JUMPDEST PUSH1 0x1 DUP3 ADD SWAP1 POP SWAP2 SWAP1 POP JUMP JUMPDEST PUSH32 0x4E487B7100000000000000000000000000000000000000000000000000000000 PUSH1 0x0 MSTORE PUSH1 0x11 PUSH1 0x4 MSTORE PUSH1 0x24 PUSH1 0x0 REVERT JUMPDEST PUSH32 0x4E487B7100000000000000000000000000000000000000000000000000000000 PUSH1 0x0 MSTORE PUSH1 0x22 PUSH1 0x4 MSTORE PUSH1 0x24 PUSH1 0x0 REVERT JUMPDEST PUSH32 0x4E487B7100000000000000000000000000000000000000000000000000000000 PUSH1 0x0 MSTORE PUSH1 0x32 PUSH1 0x4 MSTORE PUSH1 0x24 PUSH1 0x0 REVERT JUMPDEST PUSH32 0x4E487B7100000000000000000000000000000000000000000000000000000000 PUSH1 0x0 MSTORE PUSH1 0x41 PUSH1 0x4 MSTORE PUSH1 0x24 PUSH1 0x0 REVERT JUMPDEST PUSH1 0x0 DUP1 REVERT JUMPDEST PUSH1 0x0 DUP1 REVERT JUMPDEST PUSH1 0x0 DUP1 REVERT JUMPDEST PUSH1 0x0 DUP1 REVERT JUMPDEST PUSH1 0x0 DUP1 REVERT JUMPDEST PUSH1 0x0 PUSH1 0x1F NOT PUSH1 0x1F DUP4 ADD AND SWAP1 POP SWAP2 SWAP1 POP JUMP JUMPDEST PUSH32 0x4455504500000000000000000000000000000000000000000000000000000000 PUSH1 0x0 DUP3 ADD MSTORE POP JUMP JUMPDEST PUSH3 0xBDC DUP2 PUSH3 0x98A JUMP JUMPDEST DUP2 EQ PUSH3 0xBE8 JUMPI PUSH1 0x0 DUP1 REVERT JUMPDEST POP JUMP JUMPDEST PUSH3 0xBF6 DUP2 PUSH3 0x99E JUMP JUMPDEST DUP2 EQ PUSH3 0xC02 JUMPI PUSH1 0x0 DUP1 REVERT JUMPDEST POP JUMP JUMPDEST PUSH3 0xC10 DUP2 PUSH3 0x9C8 JUMP JUMPDEST DUP2 EQ PUSH3 0xC1C JUMPI PUSH1 0x0 DUP1 REVERT JUMPDEST POP JUMP JUMPDEST PUSH2 0x2EB5 DUP1 PUSH3 0xC2F PUSH1 0x0 CODECOPY PUSH1 0x0 RETURN INVALID PUSH1 0x80 PUSH1 0x40 MSTORE PUSH1 0x4 CALLDATASIZE LT PUSH2 0x1D8 JUMPI PUSH1 0x0 CALLDATALOAD PUSH1 0xE0 SHR DUP1 PUSH4 0x677342CE GT PUSH2 0x102 JUMPI DUP1 PUSH4 0xC5169275 GT PUSH2 0x95 JUMPI DUP1 PUSH4 0xE04D78B0 GT PUSH2 0x64 JUMPI DUP1 PUSH4 0xE04D78B0 EQ PUSH2 0x796 JUMPI DUP1 PUSH4 0xE5A65259 EQ PUSH2 0x7D3 JUMPI DUP1 PUSH4 0xF616CE3C EQ PUSH2 0x810 JUMPI DUP1 PUSH4 0xF96E4E4A EQ PUSH2 0x83B JUMPI PUSH2 0x1D8 JUMP JUMPDEST DUP1 PUSH4 0xC5169275 EQ PUSH2 0x6D7 JUMPI DUP1 PUSH4 0xCEB4BF50 EQ PUSH2 0x700 JUMPI DUP1 PUSH4 0xD5C76528 EQ PUSH2 0x73D JUMPI DUP1 PUSH4 0xDBBC63EF EQ PUSH2 0x77A JUMPI PUSH2 0x1D8 JUMP JUMPDEST DUP1 PUSH4 0x7E2C6E3B GT PUSH2 0xD1 JUMPI DUP1 PUSH4 0x7E2C6E3B EQ PUSH2 0x60B JUMPI DUP1 PUSH4 0x85848A12 EQ PUSH2 0x634 JUMPI DUP1 PUSH4 0x8F39991E EQ PUSH2 0x65D JUMPI DUP1 PUSH4 0xAC32917D EQ PUSH2 0x69A JUMPI PUSH2 0x1D8 JUMP JUMPDEST DUP1 PUSH4 0x677342CE EQ PUSH2 0x517 JUMPI DUP1 PUSH4 0x67D42A8B EQ PUSH2 0x554 JUMPI DUP1 PUSH4 0x6CD65A97 EQ PUSH2 0x591 JUMPI DUP1 PUSH4 0x7ACC0B20 EQ PUSH2 0x5CE JUMPI PUSH2 0x1D8 JUMP JUMPDEST DUP1 PUSH4 0x16835A07 GT PUSH2 0x17A JUMPI DUP1 PUSH4 0x5BE2C43C GT PUSH2 0x149 JUMPI DUP1 PUSH4 0x5BE2C43C EQ PUSH2 0x423 JUMPI DUP1 PUSH4 0x5C36901C EQ PUSH2 0x460 JUMPI DUP1 PUSH4 0x5F9ED34E EQ PUSH2 0x49D JUMPI DUP1 PUSH4 0x63950125 EQ PUSH2 0x4DA JUMPI PUSH2 0x1D8 JUMP JUMPDEST DUP1 PUSH4 0x16835A07 EQ PUSH2 0x32E JUMPI DUP1 PUSH4 0x17AFB0EE EQ PUSH2 0x36C JUMPI DUP1 PUSH4 0x31640096 EQ PUSH2 0x3A9 JUMPI DUP1 PUSH4 0x4424979A EQ PUSH2 0x3E6 JUMPI PUSH2 0x1D8 JUMP JUMPDEST DUP1 PUSH4 0x6FDDE03 GT PUSH2 0x1B6 JUMPI DUP1 PUSH4 0x6FDDE03 EQ PUSH2 0x25E JUMPI DUP1 PUSH4 0x9101B95 EQ PUSH2 0x289 JUMPI DUP1 PUSH4 0xC27242D EQ PUSH2 0x2B4 JUMPI DUP1 PUSH4 0xF689083 EQ PUSH2 0x2F1 JUMPI PUSH2 0x1D8 JUMP JUMPDEST DUP1 PUSH4 0x2EE3A52 EQ PUSH2 0x1DD JUMPI DUP1 PUSH4 0x5F02FF2 EQ PUSH2 0x208 JUMPI DUP1 PUSH4 0x6B1C777 EQ PUSH2 0x233 JUMPI JUMPDEST PUSH1 0x0 DUP1 REVERT JUMPDEST CALLVALUE DUP1 ISZERO PUSH2 0x1E9 JUMPI PUSH1 0x0 DUP1 REVERT JUMPDEST POP PUSH2 0x1F2 PUSH2 0x878 JUMP JUMPDEST PUSH1 0x40 MLOAD PUSH2 0x1FF SWAP2 SWAP1 PUSH2 0x2460 JUMP JUMPDEST PUSH1 0x40 MLOAD DUP1 SWAP2 SUB SWAP1 RETURN JUMPDEST CALLVALUE DUP1 ISZERO PUSH2 0x214 JUMPI PUSH1 0x0 DUP1 REVERT JUMPDEST POP PUSH2 0x21D PUSH2 0x8D0 JUMP JUMPDEST PUSH1 0x40 MLOAD PUSH2 0x22A SWAP2 SWAP1 PUSH2 0x23EC JUMP JUMPDEST PUSH1 0x40 MLOAD DUP1 SWAP2 SUB SWAP1 RETURN JUMPDEST CALLVALUE DUP1 ISZERO PUSH2 0x23F JUMPI PUSH1 0x0 DUP1 REVERT JUMPDEST POP PUSH2 0x248 PUSH2 0x8E8 JUMP JUMPDEST PUSH1 0x40 MLOAD PUSH2 0x255 SWAP2 SWAP1 PUSH2 0x271E JUMP JUMPDEST PUSH1 0x40 MLOAD DUP1 SWAP2 SUB SWAP1 RETURN JUMPDEST CALLVALUE DUP1 ISZERO PUSH2 0x26A JUMPI PUSH1 0x0 DUP1 REVERT JUMPDEST POP PUSH2 0x273 PUSH2 0x8EE JUMP JUMPDEST PUSH1 0x40 MLOAD PUSH2 0x280 SWAP2 SWAP1 PUSH2 0x24FC JUMP JUMPDEST PUSH1 0x40 MLOAD DUP1 SWAP2 SUB SWAP1 RETURN JUMPDEST CALLVALUE DUP1 ISZERO PUSH2 0x295 JUMPI PUSH1 0x0 DUP1 REVERT JUMPDEST POP PUSH2 0x29E PUSH2 0x97C JUMP JUMPDEST PUSH1 0x40 MLOAD PUSH2 0x2AB SWAP2 SWAP1 PUSH2 0x271E JUMP JUMPDEST PUSH1 0x40 MLOAD DUP1 SWAP2 SUB SWAP1 RETURN JUMPDEST CALLVALUE DUP1 ISZERO PUSH2 0x2C0 JUMPI PUSH1 0x0 DUP1 REVERT JUMPDEST POP PUSH2 0x2DB PUSH1 0x4 DUP1 CALLDATASIZE SUB DUP2 ADD SWAP1 PUSH2 0x2D6 SWAP2 SWAP1 PUSH2 0x1E1A JUMP JUMPDEST PUSH2 0x982 JUMP JUMPDEST PUSH1 0x40 MLOAD PUSH2 0x2E8 SWAP2 SWAP1 PUSH2 0x271E JUMP JUMPDEST PUSH1 0x40 MLOAD DUP1 SWAP2 SUB SWAP1 RETURN JUMPDEST CALLVALUE DUP1 ISZERO PUSH2 0x2FD JUMPI PUSH1 0x0 DUP1 REVERT JUMPDEST POP PUSH2 0x318 PUSH1 0x4 DUP1 CALLDATASIZE SUB DUP2 ADD SWAP1 PUSH2 0x313 SWAP2 SWAP1 PUSH2 0x1E1A JUMP JUMPDEST PUSH2 0x99A JUMP JUMPDEST PUSH1 0x40 MLOAD PUSH2 0x325 SWAP2 SWAP1 PUSH2 0x271E JUMP JUMPDEST PUSH1 0x40 MLOAD DUP1 SWAP2 SUB SWAP1 RETURN JUMPDEST CALLVALUE DUP1 ISZERO PUSH2 0x33A JUMPI PUSH1 0x0 DUP1 REVERT JUMPDEST POP PUSH2 0x355 PUSH1 0x4 DUP1 CALLDATASIZE SUB DUP2 ADD SWAP1 PUSH2 0x350 SWAP2 SWAP1 PUSH2 0x1E47 JUMP JUMPDEST PUSH2 0x9B2 JUMP JUMPDEST PUSH1 0x40 MLOAD PUSH2 0x363 SWAP3 SWAP2 SWAP1 PUSH2 0x24B8 JUMP JUMPDEST PUSH1 0x40 MLOAD DUP1 SWAP2 SUB SWAP1 RETURN JUMPDEST CALLVALUE DUP1 ISZERO PUSH2 0x378 JUMPI PUSH1 0x0 DUP1 REVERT JUMPDEST POP PUSH2 0x393 PUSH1 0x4 DUP1 CALLDATASIZE SUB DUP2 ADD SWAP1 PUSH2 0x38E SWAP2 SWAP1 PUSH2 0x1E1A JUMP JUMPDEST PUSH2 0xA6A JUMP JUMPDEST PUSH1 0x40 MLOAD PUSH2 0x3A0 SWAP2 SWAP1 PUSH2 0x2482 JUMP JUMPDEST PUSH1 0x40 MLOAD DUP1 SWAP2 SUB SWAP1 RETURN JUMPDEST CALLVALUE DUP1 ISZERO PUSH2 0x3B5 JUMPI PUSH1 0x0 DUP1 REVERT JUMPDEST POP PUSH2 0x3D0 PUSH1 0x4 DUP1 CALLDATASIZE SUB DUP2 ADD SWAP1 PUSH2 0x3CB SWAP2 SWAP1 PUSH2 0x1F47 JUMP JUMPDEST PUSH2 0xAA1 JUMP JUMPDEST PUSH1 0x40 MLOAD PUSH2 0x3DD SWAP2 SWAP1 PUSH2 0x271E JUMP JUMPDEST PUSH1 0x40 MLOAD DUP1 SWAP2 SUB SWAP1 RETURN JUMPDEST CALLVALUE DUP1 ISZERO PUSH2 0x3F2 JUMPI PUSH1 0x0 DUP1 REVERT JUMPDEST POP PUSH2 0x40D PUSH1 0x4 DUP1 CALLDATASIZE SUB DUP2 ADD SWAP1 PUSH2 0x408 SWAP2 SWAP1 PUSH2 0x1E47 JUMP JUMPDEST PUSH2 0xAC4 JUMP JUMPDEST PUSH1 0x40 MLOAD PUSH2 0x41A SWAP2 SWAP1 PUSH2 0x271E JUMP JUMPDEST PUSH1 0x40 MLOAD DUP1 SWAP2 SUB SWAP1 RETURN JUMPDEST CALLVALUE DUP1 ISZERO PUSH2 0x42F JUMPI PUSH1 0x0 DUP1 REVERT JUMPDEST POP PUSH2 0x44A PUSH1 0x4 DUP1 CALLDATASIZE SUB DUP2 ADD SWAP1 PUSH2 0x445 SWAP2 SWAP1 PUSH2 0x1EC7 JUMP JUMPDEST PUSH2 0xAE9 JUMP JUMPDEST PUSH1 0x40 MLOAD PUSH2 0x457 SWAP2 SWAP1 PUSH2 0x271E JUMP JUMPDEST PUSH1 0x40 MLOAD DUP1 SWAP2 SUB SWAP1 RETURN JUMPDEST CALLVALUE DUP1 ISZERO PUSH2 0x46C JUMPI PUSH1 0x0 DUP1 REVERT JUMPDEST POP PUSH2 0x487 PUSH1 0x4 DUP1 CALLDATASIZE SUB DUP2 ADD SWAP1 PUSH2 0x482 SWAP2 SWAP1 PUSH2 0x1E1A JUMP JUMPDEST PUSH2 0xB77 JUMP JUMPDEST PUSH1 0x40 MLOAD PUSH2 0x494 SWAP2 SWAP1 PUSH2 0x249D JUMP JUMPDEST PUSH1 0x40 MLOAD DUP1 SWAP2 SUB SWAP1 RETURN JUMPDEST CALLVALUE DUP1 ISZERO PUSH2 0x4A9 JUMPI PUSH1 0x0 DUP1 REVERT JUMPDEST POP PUSH2 0x4C4 PUSH1 0x4 DUP1 CALLDATASIZE SUB DUP2 ADD SWAP1 PUSH2 0x4BF SWAP2 SWAP1 PUSH2 0x1E1A JUMP JUMPDEST PUSH2 0xB97 JUMP JUMPDEST PUSH1 0x40 MLOAD PUSH2 0x4D1 SWAP2 SWAP1 PUSH2 0x271E JUMP JUMPDEST PUSH1 0x40 MLOAD DUP1 SWAP2 SUB SWAP1 RETURN JUMPDEST CALLVALUE DUP1 ISZERO PUSH2 0x4E6 JUMPI PUSH1 0x0 DUP1 REVERT JUMPDEST POP PUSH2 0x501 PUSH1 0x4 DUP1 CALLDATASIZE SUB DUP2 ADD SWAP1 PUSH2 0x4FC SWAP2 SWAP1 PUSH2 0x1E1A JUMP JUMPDEST PUSH2 0xBAF JUMP JUMPDEST PUSH1 0x40 MLOAD PUSH2 0x50E SWAP2 SWAP1 PUSH2 0x271E JUMP JUMPDEST PUSH1 0x40 MLOAD DUP1 SWAP2 SUB SWAP1 RETURN JUMPDEST CALLVALUE DUP1 ISZERO PUSH2 0x523 JUMPI PUSH1 0x0 DUP1 REVERT JUMPDEST POP PUSH2 0x53E PUSH1 0x4 DUP1 CALLDATASIZE SUB DUP2 ADD SWAP1 PUSH2 0x539 SWAP2 SWAP1 PUSH2 0x1F1A JUMP JUMPDEST PUSH2 0xBC7 JUMP JUMPDEST PUSH1 0x40 MLOAD PUSH2 0x54B SWAP2 SWAP1 PUSH2 0x271E JUMP JUMPDEST PUSH1 0x40 MLOAD DUP1 SWAP2 SUB SWAP1 RETURN JUMPDEST CALLVALUE DUP1 ISZERO PUSH2 0x560 JUMPI PUSH1 0x0 DUP1 REVERT JUMPDEST POP PUSH2 0x57B PUSH1 0x4 DUP1 CALLDATASIZE SUB DUP2 ADD SWAP1 PUSH2 0x576 SWAP2 SWAP1 PUSH2 0x1E1A JUMP JUMPDEST PUSH2 0xC24 JUMP JUMPDEST PUSH1 0x40 MLOAD PUSH2 0x588 SWAP2 SWAP1 PUSH2 0x271E JUMP JUMPDEST PUSH1 0x40 MLOAD DUP1 SWAP2 SUB SWAP1 RETURN JUMPDEST CALLVALUE DUP1 ISZERO PUSH2 0x59D JUMPI PUSH1 0x0 DUP1 REVERT JUMPDEST POP PUSH2 0x5B8 PUSH1 0x4 DUP1 CALLDATASIZE SUB DUP2 ADD SWAP1 PUSH2 0x5B3 SWAP2 SWAP1 PUSH2 0x1E47 JUMP JUMPDEST PUSH2 0xC3C JUMP JUMPDEST PUSH1 0x40 MLOAD PUSH2 0x5C5 SWAP2 SWAP1 PUSH2 0x271E JUMP JUMPDEST PUSH1 0x40 MLOAD DUP1 SWAP2 SUB SWAP1 RETURN JUMPDEST CALLVALUE DUP1 ISZERO PUSH2 0x5DA JUMPI PUSH1 0x0 DUP1 REVERT JUMPDEST POP PUSH2 0x5F5 PUSH1 0x4 DUP1 CALLDATASIZE SUB DUP2 ADD SWAP1 PUSH2 0x5F0 SWAP2 SWAP1 PUSH2 0x1F1A JUMP JUMPDEST PUSH2 0xC61 JUMP JUMPDEST PUSH1 0x40 MLOAD PUSH2 0x602 SWAP2 SWAP1 PUSH2 0x24E1 JUMP JUMPDEST PUSH1 0x40 MLOAD DUP1 SWAP2 SUB SWAP1 RETURN JUMPDEST CALLVALUE DUP1 ISZERO PUSH2 0x617 JUMPI PUSH1 0x0 DUP1 REVERT JUMPDEST POP PUSH2 0x632 PUSH1 0x4 DUP1 CALLDATASIZE SUB DUP2 ADD SWAP1 PUSH2 0x62D SWAP2 SWAP1 PUSH2 0x1E87 JUMP JUMPDEST PUSH2 0xC85 JUMP JUMPDEST STOP JUMPDEST CALLVALUE DUP1 ISZERO PUSH2 0x640 JUMPI PUSH1 0x0 DUP1 REVERT JUMPDEST POP PUSH2 0x65B PUSH1 0x4 DUP1 CALLDATASIZE SUB DUP2 ADD SWAP1 PUSH2 0x656 SWAP2 SWAP1 PUSH2 0x1E87 JUMP JUMPDEST PUSH2 0xF53 JUMP JUMPDEST STOP JUMPDEST CALLVALUE DUP1 ISZERO PUSH2 0x669 JUMPI PUSH1 0x0 DUP1 REVERT JUMPDEST POP PUSH2 0x684 PUSH1 0x4 DUP1 CALLDATASIZE SUB DUP2 ADD SWAP1 PUSH2 0x67F SWAP2 SWAP1 PUSH2 0x1E1A JUMP JUMPDEST PUSH2 0x12EB JUMP JUMPDEST PUSH1 0x40 MLOAD PUSH2 0x691 SWAP2 SWAP1 PUSH2 0x249D JUMP JUMPDEST PUSH1 0x40 MLOAD DUP1 SWAP2 SUB SWAP1 RETURN JUMPDEST CALLVALUE DUP1 ISZERO PUSH2 0x6A6 JUMPI PUSH1 0x0 DUP1 REVERT JUMPDEST POP PUSH2 0x6C1 PUSH1 0x4 DUP1 CALLDATASIZE SUB DUP2 ADD SWAP1 PUSH2 0x6BC SWAP2 SWAP1 PUSH2 0x1E47 JUMP JUMPDEST PUSH2 0x134D JUMP JUMPDEST PUSH1 0x40 MLOAD PUSH2 0x6CE SWAP2 SWAP1 PUSH2 0x271E JUMP JUMPDEST PUSH1 0x40 MLOAD DUP1 SWAP2 SUB SWAP1 RETURN JUMPDEST CALLVALUE DUP1 ISZERO PUSH2 0x6E3 JUMPI PUSH1 0x0 DUP1 REVERT JUMPDEST POP PUSH2 0x6FE PUSH1 0x4 DUP1 CALLDATASIZE SUB DUP2 ADD SWAP1 PUSH2 0x6F9 SWAP2 SWAP1 PUSH2 0x1DAD JUMP JUMPDEST PUSH2 0x1372 JUMP JUMPDEST STOP JUMPDEST CALLVALUE DUP1 ISZERO PUSH2 0x70C JUMPI PUSH1 0x0 DUP1 REVERT JUMPDEST POP PUSH2 0x727 PUSH1 0x4 DUP1 CALLDATASIZE SUB DUP2 ADD SWAP1 PUSH2 0x722 SWAP2 SWAP1 PUSH2 0x1E1A JUMP JUMPDEST PUSH2 0x13F9 JUMP JUMPDEST PUSH1 0x40 MLOAD PUSH2 0x734 SWAP2 SWAP1 PUSH2 0x271E JUMP JUMPDEST PUSH1 0x40 MLOAD DUP1 SWAP2 SUB SWAP1 RETURN JUMPDEST CALLVALUE DUP1 ISZERO PUSH2 0x749 JUMPI PUSH1 0x0 DUP1 REVERT JUMPDEST POP PUSH2 0x764 PUSH1 0x4 DUP1 CALLDATASIZE SUB DUP2 ADD SWAP1 PUSH2 0x75F SWAP2 SWAP1 PUSH2 0x1E1A JUMP JUMPDEST PUSH2 0x1416 JUMP JUMPDEST PUSH1 0x40 MLOAD PUSH2 0x771 SWAP2 SWAP1 PUSH2 0x271E JUMP JUMPDEST PUSH1 0x40 MLOAD DUP1 SWAP2 SUB SWAP1 RETURN JUMPDEST PUSH2 0x794 PUSH1 0x4 DUP1 CALLDATASIZE SUB DUP2 ADD SWAP1 PUSH2 0x78F SWAP2 SWAP1 PUSH2 0x1E1A JUMP JUMPDEST PUSH2 0x142E JUMP JUMPDEST STOP JUMPDEST CALLVALUE DUP1 ISZERO PUSH2 0x7A2 JUMPI PUSH1 0x0 DUP1 REVERT JUMPDEST POP PUSH2 0x7BD PUSH1 0x4 DUP1 CALLDATASIZE SUB DUP2 ADD SWAP1 PUSH2 0x7B8 SWAP2 SWAP1 PUSH2 0x1E1A JUMP JUMPDEST PUSH2 0x184A JUMP JUMPDEST PUSH1 0x40 MLOAD PUSH2 0x7CA SWAP2 SWAP1 PUSH2 0x271E JUMP JUMPDEST PUSH1 0x40 MLOAD DUP1 SWAP2 SUB SWAP1 RETURN JUMPDEST CALLVALUE DUP1 ISZERO PUSH2 0x7DF JUMPI PUSH1 0x0 DUP1 REVERT JUMPDEST POP PUSH2 0x7FA PUSH1 0x4 DUP1 CALLDATASIZE SUB DUP2 ADD SWAP1 PUSH2 0x7F5 SWAP2 SWAP1 PUSH2 0x1E87 JUMP JUMPDEST PUSH2 0x1862 JUMP JUMPDEST PUSH1 0x40 MLOAD PUSH2 0x807 SWAP2 SWAP1 PUSH2 0x271E JUMP JUMPDEST PUSH1 0x40 MLOAD DUP1 SWAP2 SUB SWAP1 RETURN JUMPDEST CALLVALUE DUP1 ISZERO PUSH2 0x81C JUMPI PUSH1 0x0 DUP1 REVERT JUMPDEST POP PUSH2 0x825 PUSH2 0x1966 JUMP JUMPDEST PUSH1 0x40 MLOAD PUSH2 0x832 SWAP2 SWAP1 PUSH2 0x23EC JUMP JUMPDEST PUSH1 0x40 MLOAD DUP1 SWAP2 SUB SWAP1 RETURN JUMPDEST CALLVALUE DUP1 ISZERO PUSH2 0x847 JUMPI PUSH1 0x0 DUP1 REVERT JUMPDEST POP PUSH2 0x862 PUSH1 0x4 DUP1 CALLDATASIZE SUB DUP2 ADD SWAP1 PUSH2 0x85D SWAP2 SWAP1 PUSH2 0x1E1A JUMP JUMPDEST PUSH2 0x198C JUMP JUMPDEST PUSH1 0x40 MLOAD PUSH2 0x86F SWAP2 SWAP1 PUSH2 0x243E JUMP JUMPDEST PUSH1 0x40 MLOAD DUP1 SWAP2 SUB SWAP1 RETURN JUMPDEST PUSH1 0x60 PUSH1 0x0 DUP1 SLOAD DUP1 PUSH1 0x20 MUL PUSH1 0x20 ADD PUSH1 0x40 MLOAD SWAP1 DUP2 ADD PUSH1 0x40 MSTORE DUP1 SWAP3 SWAP2 SWAP1 DUP2 DUP2 MSTORE PUSH1 0x20 ADD DUP3 DUP1 SLOAD DUP1 ISZERO PUSH2 0x8C6 JUMPI PUSH1 0x20 MUL DUP3 ADD SWAP2 SWAP1 PUSH1 0x0 MSTORE PUSH1 0x20 PUSH1 0x0 KECCAK256 SWAP1 JUMPDEST DUP2 SLOAD DUP2 MSTORE PUSH1 0x20 ADD SWAP1 PUSH1 0x1 ADD SWAP1 DUP1 DUP4 GT PUSH2 0x8B2 JUMPI JUMPDEST POP POP POP POP POP SWAP1 POP SWAP1 JUMP JUMPDEST PUSH20 0x9B00B2A3514CC05EA9957AD5E4D279D724A81AFB DUP2 JUMP JUMPDEST PUSH1 0x8 SLOAD DUP2 JUMP JUMPDEST PUSH1 0x7 DUP1 SLOAD PUSH2 0x8FB SWAP1 PUSH2 0x2999 JUMP JUMPDEST DUP1 PUSH1 0x1F ADD PUSH1 0x20 DUP1 SWAP2 DIV MUL PUSH1 0x20 ADD PUSH1 0x40 MLOAD SWAP1 DUP2 ADD PUSH1 0x40 MSTORE DUP1 SWAP3 SWAP2 SWAP1 DUP2 DUP2 MSTORE PUSH1 0x20 ADD DUP3 DUP1 SLOAD PUSH2 0x927 SWAP1 PUSH2 0x2999 JUMP JUMPDEST DUP1 ISZERO PUSH2 0x974 JUMPI DUP1 PUSH1 0x1F LT PUSH2 0x949 JUMPI PUSH2 0x100 DUP1 DUP4 SLOAD DIV MUL DUP4 MSTORE SWAP2 PUSH1 0x20 ADD SWAP2 PUSH2 0x974 JUMP JUMPDEST DUP3 ADD SWAP2 SWAP1 PUSH1 0x0 MSTORE PUSH1 0x20 PUSH1 0x0 KECCAK256 SWAP1 JUMPDEST DUP2 SLOAD DUP2 MSTORE SWAP1 PUSH1 0x1 ADD SWAP1 PUSH1 0x20 ADD DUP1 DUP4 GT PUSH2 0x957 JUMPI DUP3 SWAP1 SUB PUSH1 0x1F AND DUP3 ADD SWAP2 JUMPDEST POP POP POP POP POP DUP2 JUMP JUMPDEST PUSH1 0x9 SLOAD DUP2 JUMP JUMPDEST PUSH1 0x6 PUSH1 0x20 MSTORE DUP1 PUSH1 0x0 MSTORE PUSH1 0x40 PUSH1 0x0 KECCAK256 PUSH1 0x0 SWAP2 POP SWAP1 POP SLOAD DUP2 JUMP JUMPDEST PUSH1 0xF PUSH1 0x20 MSTORE DUP1 PUSH1 0x0 MSTORE PUSH1 0x40 PUSH1 0x0 KECCAK256 PUSH1 0x0 SWAP2 POP SWAP1 POP SLOAD DUP2 JUMP JUMPDEST PUSH1 0x0 DUP1 PUSH1 0x0 PUSH2 0x9D2 PUSH1 0xD PUSH1 0x0 DUP8 DUP2 MSTORE PUSH1 0x20 ADD SWAP1 DUP2 MSTORE PUSH1 0x20 ADD PUSH1 0x0 KECCAK256 PUSH2 0x1A95 JUMP JUMPDEST SWAP1 POP PUSH1 0x0 DUP1 PUSH1 0x0 JUMPDEST DUP4 DUP2 LT ISZERO PUSH2 0xA59 JUMPI DUP7 PUSH20 0xFFFFFFFFFFFFFFFFFFFFFFFFFFFFFFFFFFFFFFFF AND PUSH2 0xA1E DUP3 PUSH1 0xD PUSH1 0x0 DUP13 DUP2 MSTORE PUSH1 0x20 ADD SWAP1 DUP2 MSTORE PUSH1 0x20 ADD PUSH1 0x0 KECCAK256 PUSH2 0x1AAA SWAP1 SWAP2 SWAP1 PUSH4 0xFFFFFFFF AND JUMP JUMPDEST PUSH20 0xFFFFFFFFFFFFFFFFFFFFFFFFFFFFFFFFFFFFFFFF AND EQ ISZERO PUSH2 0xA46 JUMPI PUSH1 0x1 SWAP2 POP DUP1 SWAP3 POP PUSH2 0xA59 JUMP JUMPDEST DUP1 DUP1 PUSH2 0xA51 SWAP1 PUSH2 0x29CB JUMP JUMPDEST SWAP2 POP POP PUSH2 0x9DA JUMP JUMPDEST DUP2 DUP4 SWAP6 POP SWAP6 POP POP POP POP POP SWAP3 POP SWAP3 SWAP1 POP JUMP JUMPDEST PUSH2 0xA72 PUSH2 0x1D37 JUMP JUMPDEST PUSH1 0x40 MLOAD DUP1 PUSH1 0x40 ADD PUSH1 0x40 MSTORE DUP1 TIMESTAMP DUP2 MSTORE PUSH1 0x20 ADD PUSH1 0x3 PUSH1 0x0 DUP6 DUP2 MSTORE PUSH1 0x20 ADD SWAP1 DUP2 MSTORE PUSH1 0x20 ADD PUSH1 0x0 KECCAK256 SLOAD DUP2 MSTORE POP SWAP1 POP SWAP2 SWAP1 POP JUMP JUMPDEST PUSH1 0x0 PUSH2 0x3E8 DUP3 DUP5 PUSH2 0xAB2 SWAP2 SWAP1 PUSH2 0x2886 JUMP JUMPDEST PUSH2 0xABC SWAP2 SWAP1 PUSH2 0x2855 JUMP JUMPDEST SWAP1 POP SWAP3 SWAP2 POP POP JUMP JUMPDEST PUSH1 0xC PUSH1 0x20 MSTORE DUP2 PUSH1 0x0 MSTORE PUSH1 0x40 PUSH1 0x0 KECCAK256 PUSH1 0x20 MSTORE DUP1 PUSH1 0x0 MSTORE PUSH1 0x40 PUSH1 0x0 KECCAK256 PUSH1 0x0 SWAP2 POP SWAP2 POP POP SLOAD DUP2 JUMP JUMPDEST PUSH1 0x0 DUP1 PUSH1 0xF PUSH1 0x0 DUP7 DUP2 MSTORE PUSH1 0x20 ADD SWAP1 DUP2 MSTORE PUSH1 0x20 ADD PUSH1 0x0 KECCAK256 SLOAD SWAP1 POP PUSH1 0x0 PUSH1 0x5 PUSH1 0x0 DUP8 DUP2 MSTORE PUSH1 0x20 ADD SWAP1 DUP2 MSTORE PUSH1 0x20 ADD PUSH1 0x0 KECCAK256 SLOAD SWAP1 POP PUSH1 0x0 PUSH1 0x1 SWAP1 POP JUMPDEST DUP6 DUP2 LT ISZERO PUSH2 0xB6A JUMPI PUSH2 0xB4A DUP4 PUSH1 0x4 DUP8 DUP6 PUSH2 0xB3B SWAP2 SWAP1 PUSH2 0x2886 JUMP JUMPDEST PUSH2 0xB45 SWAP2 SWAP1 PUSH2 0x2855 JUMP JUMPDEST PUSH2 0xAA1 JUMP JUMPDEST DUP4 PUSH2 0xB55 SWAP2 SWAP1 PUSH2 0x27FF JUMP JUMPDEST SWAP3 POP DUP1 DUP1 PUSH2 0xB62 SWAP1 PUSH2 0x29CB JUMP JUMPDEST SWAP2 POP POP PUSH2 0xB21 JUMP JUMPDEST POP DUP2 SWAP3 POP POP POP SWAP4 SWAP3 POP POP POP JUMP JUMPDEST PUSH1 0x2 PUSH1 0x20 MSTORE DUP1 PUSH1 0x0 MSTORE PUSH1 0x40 PUSH1 0x0 KECCAK256 PUSH1 0x0 SWAP2 POP SLOAD SWAP1 PUSH2 0x100 EXP SWAP1 DIV PUSH1 0xFF AND DUP2 JUMP JUMPDEST PUSH1 0x5 PUSH1 0x20 MSTORE DUP1 PUSH1 0x0 MSTORE PUSH1 0x40 PUSH1 0x0 KECCAK256 PUSH1 0x0 SWAP2 POP SWAP1 POP SLOAD DUP2 JUMP JUMPDEST PUSH1 0x4 PUSH1 0x20 MSTORE DUP1 PUSH1 0x0 MSTORE PUSH1 0x40 PUSH1 0x0 KECCAK256 PUSH1 0x0 SWAP2 POP SWAP1 POP SLOAD DUP2 JUMP JUMPDEST PUSH1 0x0 DUP1 PUSH1 0x2 PUSH1 0x1 DUP5 PUSH2 0xBD9 SWAP2 SWAP1 PUSH2 0x27FF JUMP JUMPDEST PUSH2 0xBE3 SWAP2 SWAP1 PUSH2 0x2855 JUMP JUMPDEST SWAP1 POP DUP3 SWAP2 POP JUMPDEST DUP2 DUP2 LT ISZERO PUSH2 0xC1E JUMPI DUP1 SWAP2 POP PUSH1 0x2 DUP2 DUP3 DUP6 PUSH2 0xC03 SWAP2 SWAP1 PUSH2 0x2855 JUMP JUMPDEST PUSH2 0xC0D SWAP2 SWAP1 PUSH2 0x27FF JUMP JUMPDEST PUSH2 0xC17 SWAP2 SWAP1 PUSH2 0x2855 JUMP JUMPDEST SWAP1 POP PUSH2 0xBE9 JUMP JUMPDEST POP SWAP2 SWAP1 POP JUMP JUMPDEST PUSH1 0x3 PUSH1 0x20 MSTORE DUP1 PUSH1 0x0 MSTORE PUSH1 0x40 PUSH1 0x0 KECCAK256 PUSH1 0x0 SWAP2 POP SWAP1 POP SLOAD DUP2 JUMP JUMPDEST PUSH1 0xA PUSH1 0x20 MSTORE DUP2 PUSH1 0x0 MSTORE PUSH1 0x40 PUSH1 0x0 KECCAK256 PUSH1 0x20 MSTORE DUP1 PUSH1 0x0 MSTORE PUSH1 0x40 PUSH1 0x0 KECCAK256 PUSH1 0x0 SWAP2 POP SWAP2 POP POP SLOAD DUP2 JUMP JUMPDEST PUSH1 0x0 DUP2 DUP2 SLOAD DUP2 LT PUSH2 0xC71 JUMPI PUSH1 0x0 DUP1 REVERT JUMPDEST SWAP1 PUSH1 0x0 MSTORE PUSH1 0x20 PUSH1 0x0 KECCAK256 ADD PUSH1 0x0 SWAP2 POP SWAP1 POP SLOAD DUP2 JUMP JUMPDEST PUSH1 0x0 CALLER SWAP1 POP PUSH1 0x0 PUSH1 0x6 PUSH1 0x0 DUP6 DUP2 MSTORE PUSH1 0x20 ADD SWAP1 DUP2 MSTORE PUSH1 0x20 ADD PUSH1 0x0 KECCAK256 SLOAD SWAP1 POP PUSH1 0x0 DUP2 GT PUSH2 0xCE5 JUMPI PUSH1 0x40 MLOAD PUSH32 0x8C379A000000000000000000000000000000000000000000000000000000000 DUP2 MSTORE PUSH1 0x4 ADD PUSH2 0xCDC SWAP1 PUSH2 0x26DE JUMP JUMPDEST PUSH1 0x40 MLOAD DUP1 SWAP2 SUB SWAP1 REVERT JUMPDEST PUSH1 0x2 PUSH1 0x0 DUP6 DUP2 MSTORE PUSH1 0x20 ADD SWAP1 DUP2 MSTORE PUSH1 0x20 ADD PUSH1 0x0 KECCAK256 PUSH1 0x0 SWAP1 SLOAD SWAP1 PUSH2 0x100 EXP SWAP1 DIV PUSH1 0xFF AND PUSH2 0xD45 JUMPI PUSH1 0x40 MLOAD PUSH32 0x8C379A000000000000000000000000000000000000000000000000000000000 DUP2 MSTORE PUSH1 0x4 ADD PUSH2 0xD3C SWAP1 PUSH2 0x263E JUMP JUMPDEST PUSH1 0x40 MLOAD DUP1 SWAP2 SUB SWAP1 REVERT JUMPDEST TIMESTAMP PUSH1 0x3 PUSH1 0x0 DUP7 DUP2 MSTORE PUSH1 0x20 ADD SWAP1 DUP2 MSTORE PUSH1 0x20 ADD PUSH1 0x0 KECCAK256 SLOAD LT PUSH2 0xD9A JUMPI PUSH1 0x40 MLOAD PUSH32 0x8C379A000000000000000000000000000000000000000000000000000000000 DUP2 MSTORE PUSH1 0x4 ADD PUSH2 0xD91 SWAP1 PUSH2 0x25DE JUMP JUMPDEST PUSH1 0x40 MLOAD DUP1 SWAP2 SUB SWAP1 REVERT JUMPDEST PUSH1 0x0 DUP1 PUSH2 0xDA7 DUP7 DUP6 PUSH2 0x9B2 JUMP JUMPDEST SWAP2 POP SWAP2 POP DUP2 PUSH2 0xDEB JUMPI PUSH1 0x40 MLOAD PUSH32 0x8C379A000000000000000000000000000000000000000000000000000000000 DUP2 MSTORE PUSH1 0x4 ADD PUSH2 0xDE2 SWAP1 PUSH2 0x265E JUMP JUMPDEST PUSH1 0x40 MLOAD DUP1 SWAP2 SUB SWAP1 REVERT JUMPDEST PUSH1 0x0 PUSH2 0xDF7 DUP8 DUP4 PUSH2 0x1862 JUMP JUMPDEST SWAP1 POP DUP1 DUP7 LT ISZERO PUSH2 0xE3C JUMPI PUSH1 0x40 MLOAD PUSH32 0x8C379A000000000000000000000000000000000000000000000000000000000 DUP2 MSTORE PUSH1 0x4 ADD PUSH2 0xE33 SWAP1 PUSH2 0x269E JUMP JUMPDEST PUSH1 0x40 MLOAD DUP1 SWAP2 SUB SWAP1 REVERT JUMPDEST PUSH1 0x1 PUSH1 0x0 SWAP1 SLOAD SWAP1 PUSH2 0x100 EXP SWAP1 DIV PUSH20 0xFFFFFFFFFFFFFFFFFFFFFFFFFFFFFFFFFFFFFFFF AND PUSH20 0xFFFFFFFFFFFFFFFFFFFFFFFFFFFFFFFFFFFFFFFF AND PUSH4 0x23B872DD CALLER PUSH20 0x9B00B2A3514CC05EA9957AD5E4D279D724A81AFB DUP5 PUSH1 0x40 MLOAD DUP5 PUSH4 0xFFFFFFFF AND PUSH1 0xE0 SHL DUP2 MSTORE PUSH1 0x4 ADD PUSH2 0xEAF SWAP4 SWAP3 SWAP2 SWAP1 PUSH2 0x2407 JUMP JUMPDEST PUSH1 0x20 PUSH1 0x40 MLOAD DUP1 DUP4 SUB DUP2 PUSH1 0x0 DUP8 DUP1 EXTCODESIZE ISZERO DUP1 ISZERO PUSH2 0xEC9 JUMPI PUSH1 0x0 DUP1 REVERT JUMPDEST POP GAS CALL ISZERO DUP1 ISZERO PUSH2 0xEDD JUMPI RETURNDATASIZE PUSH1 0x0 DUP1 RETURNDATACOPY RETURNDATASIZE PUSH1 0x0 REVERT JUMPDEST POP POP POP POP PUSH1 0x40 MLOAD RETURNDATASIZE PUSH1 0x1F NOT PUSH1 0x1F DUP3 ADD AND DUP3 ADD DUP1 PUSH1 0x40 MSTORE POP DUP2 ADD SWAP1 PUSH2 0xF01 SWAP2 SWAP1 PUSH2 0x1DED JUMP JUMPDEST PUSH2 0xF40 JUMPI PUSH1 0x40 MLOAD PUSH32 0x8C379A000000000000000000000000000000000000000000000000000000000 DUP2 MSTORE PUSH1 0x4 ADD PUSH2 0xF37 SWAP1 PUSH2 0x259E JUMP JUMPDEST PUSH1 0x40 MLOAD DUP1 SWAP2 SUB SWAP1 REVERT JUMPDEST PUSH2 0xF4A DUP6 DUP9 PUSH2 0x1372 JUMP JUMPDEST POP POP POP POP POP POP POP JUMP JUMPDEST PUSH1 0x0 CALLER SWAP1 POP PUSH1 0x0 PUSH1 0x6 PUSH1 0x0 DUP6 DUP2 MSTORE PUSH1 0x20 ADD SWAP1 DUP2 MSTORE PUSH1 0x20 ADD PUSH1 0x0 KECCAK256 SLOAD SWAP1 POP PUSH1 0x0 DUP2 GT PUSH2 0xFB3 JUMPI PUSH1 0x40 MLOAD PUSH32 0x8C379A000000000000000000000000000000000000000000000000000000000 DUP2 MSTORE PUSH1 0x4 ADD PUSH2 0xFAA SWAP1 PUSH2 0x26DE JUMP JUMPDEST PUSH1 0x40 MLOAD DUP1 SWAP2 SUB SWAP1 REVERT JUMPDEST PUSH1 0x2 PUSH1 0x0 DUP6 DUP2 MSTORE PUSH1 0x20 ADD SWAP1 DUP2 MSTORE PUSH1 0x20 ADD PUSH1 0x0 KECCAK256 PUSH1 0x0 SWAP1 SLOAD SWAP1 PUSH2 0x100 EXP SWAP1 DIV PUSH1 0xFF AND PUSH2 0x1013 JUMPI PUSH1 0x40 MLOAD PUSH32 0x8C379A000000000000000000000000000000000000000000000000000000000 DUP2 MSTORE PUSH1 0x4 ADD PUSH2 0x100A SWAP1 PUSH2 0x263E JUMP JUMPDEST PUSH1 0x40 MLOAD DUP1 SWAP2 SUB SWAP1 REVERT JUMPDEST TIMESTAMP PUSH1 0x3 PUSH1 0x0 DUP7 DUP2 MSTORE PUSH1 0x20 ADD SWAP1 DUP2 MSTORE PUSH1 0x20 ADD PUSH1 0x0 KECCAK256 SLOAD GT PUSH2 0x1068 JUMPI PUSH1 0x40 MLOAD PUSH32 0x8C379A000000000000000000000000000000000000000000000000000000000 DUP2 MSTORE PUSH1 0x4 ADD PUSH2 0x105F SWAP1 PUSH2 0x267E JUMP JUMPDEST PUSH1 0x40 MLOAD DUP1 SWAP2 SUB SWAP1 REVERT JUMPDEST PUSH2 0x1071 DUP5 PUSH2 0x12EB JUMP JUMPDEST PUSH2 0x10B0 JUMPI PUSH1 0x40 MLOAD PUSH32 0x8C379A000000000000000000000000000000000000000000000000000000000 DUP2 MSTORE PUSH1 0x4 ADD PUSH2 0x10A7 SWAP1 PUSH2 0x26FE JUMP JUMPDEST PUSH1 0x40 MLOAD DUP1 SWAP2 SUB SWAP1 REVERT JUMPDEST PUSH2 0x10D5 DUP3 PUSH1 0xD PUSH1 0x0 DUP8 DUP2 MSTORE PUSH1 0x20 ADD SWAP1 DUP2 MSTORE PUSH1 0x20 ADD PUSH1 0x0 KECCAK256 PUSH2 0x1AC4 SWAP1 SWAP2 SWAP1 PUSH4 0xFFFFFFFF AND JUMP JUMPDEST ISZERO PUSH2 0x1115 JUMPI PUSH1 0x40 MLOAD PUSH32 0x8C379A000000000000000000000000000000000000000000000000000000000 DUP2 MSTORE PUSH1 0x4 ADD PUSH2 0x110C SWAP1 PUSH2 0x26BE JUMP JUMPDEST PUSH1 0x40 MLOAD DUP1 SWAP2 SUB SWAP1 REVERT JUMPDEST PUSH1 0x0 PUSH1 0xA PUSH1 0x10 PUSH1 0x0 DUP8 DUP2 MSTORE PUSH1 0x20 ADD SWAP1 DUP2 MSTORE PUSH1 0x20 ADD PUSH1 0x0 KECCAK256 SLOAD PUSH2 0x1137 SWAP2 SWAP1 PUSH2 0x2855 JUMP JUMPDEST SWAP1 POP DUP1 DUP5 LT ISZERO PUSH2 0x117C JUMPI PUSH1 0x40 MLOAD PUSH32 0x8C379A000000000000000000000000000000000000000000000000000000000 DUP2 MSTORE PUSH1 0x4 ADD PUSH2 0x1173 SWAP1 PUSH2 0x269E JUMP JUMPDEST PUSH1 0x40 MLOAD DUP1 SWAP2 SUB SWAP1 REVERT JUMPDEST PUSH1 0x1 PUSH1 0x0 SWAP1 SLOAD SWAP1 PUSH2 0x100 EXP SWAP1 DIV PUSH20 0xFFFFFFFFFFFFFFFFFFFFFFFFFFFFFFFFFFFFFFFF AND PUSH20 0xFFFFFFFFFFFFFFFFFFFFFFFFFFFFFFFFFFFFFFFF AND PUSH4 0x23B872DD CALLER PUSH20 0x9B00B2A3514CC05EA9957AD5E4D279D724A81AFB DUP5 PUSH1 0x40 MLOAD DUP5 PUSH4 0xFFFFFFFF AND PUSH1 0xE0 SHL DUP2 MSTORE PUSH1 0x4 ADD PUSH2 0x11EF SWAP4 SWAP3 SWAP2 SWAP1 PUSH2 0x2407 JUMP JUMPDEST PUSH1 0x20 PUSH1 0x40 MLOAD DUP1 DUP4 SUB DUP2 PUSH1 0x0 DUP8 DUP1 EXTCODESIZE ISZERO DUP1 ISZERO PUSH2 0x1209 JUMPI PUSH1 0x0 DUP1 REVERT JUMPDEST POP GAS CALL ISZERO DUP1 ISZERO PUSH2 0x121D JUMPI RETURNDATASIZE PUSH1 0x0 DUP1 RETURNDATACOPY RETURNDATASIZE PUSH1 0x0 REVERT JUMPDEST POP POP POP POP PUSH1 0x40 MLOAD RETURNDATASIZE PUSH1 0x1F NOT PUSH1 0x1F DUP3 ADD AND DUP3 ADD DUP1 PUSH1 0x40 MSTORE POP DUP2 ADD SWAP1 PUSH2 0x1241 SWAP2 SWAP1 PUSH2 0x1DED JUMP JUMPDEST PUSH2 0x1280 JUMPI PUSH1 0x40 MLOAD PUSH32 0x8C379A000000000000000000000000000000000000000000000000000000000 DUP2 MSTORE PUSH1 0x4 ADD PUSH2 0x1277 SWAP1 PUSH2 0x259E JUMP JUMPDEST PUSH1 0x40 MLOAD DUP1 SWAP2 SUB SWAP1 REVERT JUMPDEST PUSH2 0x12A5 DUP4 PUSH1 0xD PUSH1 0x0 DUP9 DUP2 MSTORE PUSH1 0x20 ADD SWAP1 DUP2 MSTORE PUSH1 0x20 ADD PUSH1 0x0 KECCAK256 PUSH2 0x1AF4 SWAP1 SWAP2 SWAP1 PUSH4 0xFFFFFFFF AND JUMP JUMPDEST PUSH2 0x12E4 JUMPI PUSH1 0x40 MLOAD PUSH32 0x8C379A000000000000000000000000000000000000000000000000000000000 DUP2 MSTORE PUSH1 0x4 ADD PUSH2 0x12DB SWAP1 PUSH2 0x25BE JUMP JUMPDEST PUSH1 0x40 MLOAD DUP1 SWAP2 SUB SWAP1 REVERT JUMPDEST POP POP POP POP POP JUMP JUMPDEST PUSH1 0x0 DUP1 PUSH1 0x4 PUSH1 0x0 DUP5 DUP2 MSTORE PUSH1 0x20 ADD SWAP1 DUP2 MSTORE PUSH1 0x20 ADD PUSH1 0x0 KECCAK256 SLOAD SWAP1 POP PUSH1 0x0 PUSH1 0x6 PUSH1 0x0 DUP6 DUP2 MSTORE PUSH1 0x20 ADD SWAP1 DUP2 MSTORE PUSH1 0x20 ADD PUSH1 0x0 KECCAK256 SLOAD SWAP1 POP DUP2 PUSH2 0x1338 PUSH1 0xD PUSH1 0x0 DUP8 DUP2 MSTORE PUSH1 0x20 ADD SWAP1 DUP2 MSTORE PUSH1 0x20 ADD PUSH1 0x0 KECCAK256 PUSH2 0x1A95 JUMP JUMPDEST DUP3 PUSH2 0x1343 SWAP2 SWAP1 PUSH2 0x27FF JUMP JUMPDEST LT SWAP3 POP POP POP SWAP2 SWAP1 POP JUMP JUMPDEST PUSH1 0xB PUSH1 0x20 MSTORE DUP2 PUSH1 0x0 MSTORE PUSH1 0x40 PUSH1 0x0 KECCAK256 PUSH1 0x20 MSTORE DUP1 PUSH1 0x0 MSTORE PUSH1 0x40 PUSH1 0x0 KECCAK256 PUSH1 0x0 SWAP2 POP SWAP2 POP POP SLOAD DUP2 JUMP JUMPDEST PUSH1 0x0 PUSH1 0x6 PUSH1 0x0 DUP4 DUP2 MSTORE PUSH1 0x20 ADD SWAP1 DUP2 MSTORE PUSH1 0x20 ADD PUSH1 0x0 KECCAK256 SLOAD SWAP1 POP PUSH1 0x0 DUP2 GT PUSH2 0x13CD JUMPI PUSH1 0x40 MLOAD PUSH32 0x8C379A000000000000000000000000000000000000000000000000000000000 DUP2 MSTORE PUSH1 0x4 ADD PUSH2 0x13C4 SWAP1 PUSH2 0x261E JUMP JUMPDEST PUSH1 0x40 MLOAD DUP1 SWAP2 SUB SWAP1 REVERT JUMPDEST PUSH1 0x1 DUP2 PUSH2 0x13DA SWAP2 SWAP1 PUSH2 0x27FF JUMP JUMPDEST SWAP1 POP DUP1 PUSH1 0x6 PUSH1 0x0 DUP5 DUP2 MSTORE PUSH1 0x20 ADD SWAP1 DUP2 MSTORE PUSH1 0x20 ADD PUSH1 0x0 KECCAK256 DUP2 SWAP1 SSTORE POP POP POP POP JUMP JUMPDEST PUSH1 0x0 PUSH1 0xE PUSH1 0x0 DUP4 DUP2 MSTORE PUSH1 0x20 ADD SWAP1 DUP2 MSTORE PUSH1 0x20 ADD PUSH1 0x0 KECCAK256 SLOAD SWAP1 POP SWAP2 SWAP1 POP JUMP JUMPDEST PUSH1 0x10 PUSH1 0x20 MSTORE DUP1 PUSH1 0x0 MSTORE PUSH1 0x40 PUSH1 0x0 KECCAK256 PUSH1 0x0 SWAP2 POP SWAP1 POP SLOAD DUP2 JUMP JUMPDEST PUSH1 0x0 CALLER SWAP1 POP PUSH1 0x0 PUSH1 0x6 PUSH1 0x0 DUP5 DUP2 MSTORE PUSH1 0x20 ADD SWAP1 DUP2 MSTORE PUSH1 0x20 ADD PUSH1 0x0 KECCAK256 SLOAD SWAP1 POP PUSH1 0x0 DUP2 GT PUSH2 0x148E JUMPI PUSH1 0x40 MLOAD PUSH32 0x8C379A000000000000000000000000000000000000000000000000000000000 DUP2 MSTORE PUSH1 0x4 ADD PUSH2 0x1485 SWAP1 PUSH2 0x261E JUMP JUMPDEST PUSH1 0x40 MLOAD DUP1 SWAP2 SUB SWAP1 REVERT JUMPDEST PUSH1 0x2 PUSH1 0x0 DUP5 DUP2 MSTORE PUSH1 0x20 ADD SWAP1 DUP2 MSTORE PUSH1 0x20 ADD PUSH1 0x0 KECCAK256 PUSH1 0x0 SWAP1 SLOAD SWAP1 PUSH2 0x100 EXP SWAP1 DIV PUSH1 0xFF AND PUSH2 0x14EE JUMPI PUSH1 0x40 MLOAD PUSH32 0x8C379A000000000000000000000000000000000000000000000000000000000 DUP2 MSTORE PUSH1 0x4 ADD PUSH2 0x14E5 SWAP1 PUSH2 0x253E JUMP JUMPDEST PUSH1 0x40 MLOAD DUP1 SWAP2 SUB SWAP1 REVERT JUMPDEST TIMESTAMP PUSH1 0x3 PUSH1 0x0 DUP6 DUP2 MSTORE PUSH1 0x20 ADD SWAP1 DUP2 MSTORE PUSH1 0x20 ADD PUSH1 0x0 KECCAK256 SLOAD LT PUSH2 0x1543 JUMPI PUSH1 0x40 MLOAD PUSH32 0x8C379A000000000000000000000000000000000000000000000000000000000 DUP2 MSTORE PUSH1 0x4 ADD PUSH2 0x153A SWAP1 PUSH2 0x25DE JUMP JUMPDEST PUSH1 0x40 MLOAD DUP1 SWAP2 SUB SWAP1 REVERT JUMPDEST PUSH2 0x154C DUP4 PUSH2 0x12EB JUMP JUMPDEST PUSH2 0x158B JUMPI PUSH1 0x40 MLOAD PUSH32 0x8C379A000000000000000000000000000000000000000000000000000000000 DUP2 MSTORE PUSH1 0x4 ADD PUSH2 0x1582 SWAP1 PUSH2 0x257E JUMP JUMPDEST PUSH1 0x40 MLOAD DUP1 SWAP2 SUB SWAP1 REVERT JUMPDEST PUSH1 0x0 PUSH1 0xD PUSH1 0x0 DUP6 DUP2 MSTORE PUSH1 0x20 ADD SWAP1 DUP2 MSTORE PUSH1 0x20 ADD PUSH1 0x0 KECCAK256 SWAP1 POP PUSH2 0x15B5 DUP4 DUP3 PUSH2 0x1AC4 SWAP1 SWAP2 SWAP1 PUSH4 0xFFFFFFFF AND JUMP JUMPDEST ISZERO PUSH2 0x15CF JUMPI PUSH2 0x15CD DUP4 DUP3 PUSH2 0x1B24 SWAP1 SWAP2 SWAP1 PUSH4 0xFFFFFFFF AND JUMP JUMPDEST POP JUMPDEST PUSH1 0x0 PUSH2 0x15DD DUP6 DUP5 PUSH1 0x4 PUSH2 0xAE9 JUMP JUMPDEST SWAP1 POP PUSH1 0x0 PUSH2 0x15ED DUP7 DUP6 PUSH1 0x3 PUSH2 0xAE9 JUMP JUMPDEST SWAP1 POP DUP2 DUP2 GT ISZERO PUSH2 0x1632 JUMPI PUSH1 0x40 MLOAD PUSH32 0x8C379A000000000000000000000000000000000000000000000000000000000 DUP2 MSTORE PUSH1 0x4 ADD PUSH2 0x1629 SWAP1 PUSH2 0x251E JUMP JUMPDEST PUSH1 0x40 MLOAD DUP1 SWAP2 SUB SWAP1 REVERT JUMPDEST DUP2 CALLVALUE LT ISZERO PUSH2 0x1675 JUMPI PUSH1 0x40 MLOAD PUSH32 0x8C379A000000000000000000000000000000000000000000000000000000000 DUP2 MSTORE PUSH1 0x4 ADD PUSH2 0x166C SWAP1 PUSH2 0x269E JUMP JUMPDEST PUSH1 0x40 MLOAD DUP1 SWAP2 SUB SWAP1 REVERT JUMPDEST PUSH1 0x0 PUSH20 0x9B00B2A3514CC05EA9957AD5E4D279D724A81AFB PUSH20 0xFFFFFFFFFFFFFFFFFFFFFFFFFFFFFFFFFFFFFFFF AND DUP4 PUSH1 0x40 MLOAD PUSH2 0x16AF SWAP1 PUSH2 0x23D7 JUMP JUMPDEST PUSH1 0x0 PUSH1 0x40 MLOAD DUP1 DUP4 SUB DUP2 DUP6 DUP8 GAS CALL SWAP3 POP POP POP RETURNDATASIZE DUP1 PUSH1 0x0 DUP2 EQ PUSH2 0x16EC JUMPI PUSH1 0x40 MLOAD SWAP2 POP PUSH1 0x1F NOT PUSH1 0x3F RETURNDATASIZE ADD AND DUP3 ADD PUSH1 0x40 MSTORE RETURNDATASIZE DUP3 MSTORE RETURNDATASIZE PUSH1 0x0 PUSH1 0x20 DUP5 ADD RETURNDATACOPY PUSH2 0x16F1 JUMP JUMPDEST PUSH1 0x60 SWAP2 POP JUMPDEST POP POP SWAP1 POP DUP1 PUSH2 0x1735 JUMPI PUSH1 0x40 MLOAD PUSH32 0x8C379A000000000000000000000000000000000000000000000000000000000 DUP2 MSTORE PUSH1 0x4 ADD PUSH2 0x172C SWAP1 PUSH2 0x255E JUMP JUMPDEST PUSH1 0x40 MLOAD DUP1 SWAP2 SUB SWAP1 REVERT JUMPDEST DUP2 DUP4 PUSH2 0x1741 SWAP2 SWAP1 PUSH2 0x28E0 JUMP JUMPDEST PUSH1 0xE PUSH1 0x0 DUP10 DUP2 MSTORE PUSH1 0x20 ADD SWAP1 DUP2 MSTORE PUSH1 0x20 ADD PUSH1 0x0 KECCAK256 PUSH1 0x0 DUP3 DUP3 SLOAD PUSH2 0x1763 SWAP2 SWAP1 PUSH2 0x27FF JUMP JUMPDEST SWAP3 POP POP DUP2 SWAP1 SSTORE POP PUSH2 0x1774 DUP7 DUP9 PUSH2 0x1372 JUMP JUMPDEST PUSH1 0x0 DUP4 CALLVALUE PUSH2 0x1782 SWAP2 SWAP1 PUSH2 0x28E0 JUMP JUMPDEST GT ISZERO PUSH2 0x1841 JUMPI PUSH1 0x0 CALLER PUSH20 0xFFFFFFFFFFFFFFFFFFFFFFFFFFFFFFFFFFFFFFFF AND DUP5 CALLVALUE PUSH2 0x17AD SWAP2 SWAP1 PUSH2 0x28E0 JUMP JUMPDEST PUSH1 0x40 MLOAD PUSH2 0x17B9 SWAP1 PUSH2 0x23D7 JUMP JUMPDEST PUSH1 0x0 PUSH1 0x40 MLOAD DUP1 DUP4 SUB DUP2 DUP6 DUP8 GAS CALL SWAP3 POP POP POP RETURNDATASIZE DUP1 PUSH1 0x0 DUP2 EQ PUSH2 0x17F6 JUMPI PUSH1 0x40 MLOAD SWAP2 POP PUSH1 0x1F NOT PUSH1 0x3F RETURNDATASIZE ADD AND DUP3 ADD PUSH1 0x40 MSTORE RETURNDATASIZE DUP3 MSTORE RETURNDATASIZE PUSH1 0x0 PUSH1 0x20 DUP5 ADD RETURNDATACOPY PUSH2 0x17FB JUMP JUMPDEST PUSH1 0x60 SWAP2 POP JUMPDEST POP POP SWAP1 POP DUP1 PUSH2 0x183F JUMPI PUSH1 0x40 MLOAD PUSH32 0x8C379A000000000000000000000000000000000000000000000000000000000 DUP2 MSTORE PUSH1 0x4 ADD PUSH2 0x1836 SWAP1 PUSH2 0x25FE JUMP JUMPDEST PUSH1 0x40 MLOAD DUP1 SWAP2 SUB SWAP1 REVERT JUMPDEST POP JUMPDEST POP POP POP POP POP POP POP JUMP JUMPDEST PUSH1 0xE PUSH1 0x20 MSTORE DUP1 PUSH1 0x0 MSTORE PUSH1 0x40 PUSH1 0x0 KECCAK256 PUSH1 0x0 SWAP2 POP SWAP1 POP SLOAD DUP2 JUMP JUMPDEST PUSH1 0x0 DUP1 PUSH2 0x1880 PUSH1 0xD PUSH1 0x0 DUP7 DUP2 MSTORE PUSH1 0x20 ADD SWAP1 DUP2 MSTORE PUSH1 0x20 ADD PUSH1 0x0 KECCAK256 PUSH2 0x1A95 JUMP JUMPDEST SWAP1 POP PUSH1 0x0 PUSH1 0x2 PUSH1 0xE PUSH1 0x0 DUP8 DUP2 MSTORE PUSH1 0x20 ADD SWAP1 DUP2 MSTORE PUSH1 0x20 ADD PUSH1 0x0 KECCAK256 SLOAD PUSH2 0x18A4 SWAP2 SWAP1 PUSH2 0x2855 JUMP JUMPDEST SWAP1 POP PUSH1 0x0 DUP3 DUP3 PUSH2 0x18B4 SWAP2 SWAP1 PUSH2 0x2855 JUMP JUMPDEST SWAP1 POP PUSH1 0x0 PUSH2 0x18D8 PUSH1 0x1 DUP8 DUP7 PUSH2 0x18C9 SWAP2 SWAP1 PUSH2 0x28E0 JUMP JUMPDEST PUSH2 0x18D3 SWAP2 SWAP1 PUSH2 0x27FF JUMP JUMPDEST PUSH2 0xBC7 JUMP JUMPDEST SWAP1 POP PUSH1 0x0 PUSH2 0x18F1 PUSH1 0x1 DUP7 PUSH2 0x18EC SWAP2 SWAP1 PUSH2 0x27FF JUMP JUMPDEST PUSH2 0xBC7 JUMP JUMPDEST SWAP1 POP PUSH1 0x0 DUP2 DUP4 PUSH2 0x1901 SWAP2 SWAP1 PUSH2 0x2855 JUMP JUMPDEST DUP6 PUSH2 0x190C SWAP2 SWAP1 PUSH2 0x2886 JUMP JUMPDEST SWAP1 POP PUSH1 0x0 PUSH1 0x10 PUSH1 0x0 DUP12 DUP2 MSTORE PUSH1 0x20 ADD SWAP1 DUP2 MSTORE PUSH1 0x20 ADD PUSH1 0x0 KECCAK256 SLOAD SWAP1 POP PUSH1 0xA DUP2 PUSH2 0x1933 SWAP2 SWAP1 PUSH2 0x2855 JUMP JUMPDEST DUP2 PUSH2 0x193E SWAP2 SWAP1 PUSH2 0x28E0 JUMP JUMPDEST SWAP1 POP DUP5 DUP3 DUP3 PUSH2 0x194D SWAP2 SWAP1 PUSH2 0x27FF JUMP JUMPDEST PUSH2 0x1957 SWAP2 SWAP1 PUSH2 0x27FF JUMP JUMPDEST SWAP8 POP POP POP POP POP POP POP POP SWAP3 SWAP2 POP POP JUMP JUMPDEST PUSH1 0x1 PUSH1 0x0 SWAP1 SLOAD SWAP1 PUSH2 0x100 EXP SWAP1 DIV PUSH20 0xFFFFFFFFFFFFFFFFFFFFFFFFFFFFFFFFFFFFFFFF AND DUP2 JUMP JUMPDEST PUSH1 0x60 PUSH1 0x0 PUSH2 0x19AB PUSH1 0xD PUSH1 0x0 DUP6 DUP2 MSTORE PUSH1 0x20 ADD SWAP1 DUP2 MSTORE PUSH1 0x20 ADD PUSH1 0x0 KECCAK256 PUSH2 0x1A95 JUMP JUMPDEST SWAP1 POP PUSH1 0x0 DUP2 PUSH8 0xFFFFFFFFFFFFFFFF DUP2 GT ISZERO PUSH2 0x19C9 JUMPI PUSH2 0x19C8 PUSH2 0x2AFF JUMP JUMPDEST JUMPDEST PUSH1 0x40 MLOAD SWAP1 DUP1 DUP3 MSTORE DUP1 PUSH1 0x20 MUL PUSH1 0x20 ADD DUP3 ADD PUSH1 0x40 MSTORE DUP1 ISZERO PUSH2 0x19F7 JUMPI DUP2 PUSH1 0x20 ADD PUSH1 0x20 DUP3 MUL DUP1 CALLDATASIZE DUP4 CALLDATACOPY DUP1 DUP3 ADD SWAP2 POP POP SWAP1 POP JUMPDEST POP SWAP1 POP PUSH1 0x0 JUMPDEST DUP3 DUP2 LT ISZERO PUSH2 0x1A8A JUMPI PUSH2 0x1A2A DUP2 PUSH1 0xD PUSH1 0x0 DUP9 DUP2 MSTORE PUSH1 0x20 ADD SWAP1 DUP2 MSTORE PUSH1 0x20 ADD PUSH1 0x0 KECCAK256 PUSH2 0x1AAA SWAP1 SWAP2 SWAP1 PUSH4 0xFFFFFFFF AND JUMP JUMPDEST DUP3 DUP3 DUP2 MLOAD DUP2 LT PUSH2 0x1A3D JUMPI PUSH2 0x1A3C PUSH2 0x2AD0 JUMP JUMPDEST JUMPDEST PUSH1 0x20 MUL PUSH1 0x20 ADD ADD SWAP1 PUSH20 0xFFFFFFFFFFFFFFFFFFFFFFFFFFFFFFFFFFFFFFFF AND SWAP1 DUP2 PUSH20 0xFFFFFFFFFFFFFFFFFFFFFFFFFFFFFFFFFFFFFFFF AND DUP2 MSTORE POP POP DUP1 DUP1 PUSH2 0x1A82 SWAP1 PUSH2 0x29CB JUMP JUMPDEST SWAP2 POP POP PUSH2 0x19FD JUMP JUMPDEST DUP2 SWAP4 POP POP POP POP SWAP2 SWAP1 POP JUMP JUMPDEST PUSH1 0x0 PUSH2 0x1AA3 DUP3 PUSH1 0x0 ADD PUSH2 0x1B54 JUMP JUMPDEST SWAP1 POP SWAP2 SWAP1 POP JUMP JUMPDEST PUSH1 0x0 PUSH2 0x1AB9 DUP4 PUSH1 0x0 ADD DUP4 PUSH2 0x1B65 JUMP JUMPDEST PUSH1 0x0 SHR SWAP1 POP SWAP3 SWAP2 POP POP JUMP JUMPDEST PUSH1 0x0 PUSH2 0x1AEC DUP4 PUSH1 0x0 ADD DUP4 PUSH20 0xFFFFFFFFFFFFFFFFFFFFFFFFFFFFFFFFFFFFFFFF AND PUSH1 0x0 SHL PUSH2 0x1B90 JUMP JUMPDEST SWAP1 POP SWAP3 SWAP2 POP POP JUMP JUMPDEST PUSH1 0x0 PUSH2 0x1B1C DUP4 PUSH1 0x0 ADD DUP4 PUSH20 0xFFFFFFFFFFFFFFFFFFFFFFFFFFFFFFFFFFFFFFFF AND PUSH1 0x0 SHL PUSH2 0x1BB3 JUMP JUMPDEST SWAP1 POP SWAP3 SWAP2 POP POP JUMP JUMPDEST PUSH1 0x0 PUSH2 0x1B4C DUP4 PUSH1 0x0 ADD DUP4 PUSH20 0xFFFFFFFFFFFFFFFFFFFFFFFFFFFFFFFFFFFFFFFF AND PUSH1 0x0 SHL PUSH2 0x1C23 JUMP JUMPDEST SWAP1 POP SWAP3 SWAP2 POP POP JUMP JUMPDEST PUSH1 0x0 DUP2 PUSH1 0x0 ADD DUP1 SLOAD SWAP1 POP SWAP1 POP SWAP2 SWAP1 POP JUMP JUMPDEST PUSH1 0x0 DUP3 PUSH1 0x0 ADD DUP3 DUP2 SLOAD DUP2 LT PUSH2 0x1B7D JUMPI PUSH2 0x1B7C PUSH2 0x2AD0 JUMP JUMPDEST JUMPDEST SWAP1 PUSH1 0x0 MSTORE PUSH1 0x20 PUSH1 0x0 KECCAK256 ADD SLOAD SWAP1 POP SWAP3 SWAP2 POP POP JUMP JUMPDEST PUSH1 0x0 DUP1 DUP4 PUSH1 0x1 ADD PUSH1 0x0 DUP5 DUP2 MSTORE PUSH1 0x20 ADD SWAP1 DUP2 MSTORE PUSH1 0x20 ADD PUSH1 0x0 KECCAK256 SLOAD EQ ISZERO SWAP1 POP SWAP3 SWAP2 POP POP JUMP JUMPDEST PUSH1 0x0 PUSH2 0x1BBF DUP4 DUP4 PUSH2 0x1B90 JUMP JUMPDEST PUSH2 0x1C18 JUMPI DUP3 PUSH1 0x0 ADD DUP3 SWAP1 DUP1 PUSH1 0x1 DUP2 SLOAD ADD DUP1 DUP3 SSTORE DUP1 SWAP2 POP POP PUSH1 0x1 SWAP1 SUB SWAP1 PUSH1 0x0 MSTORE PUSH1 0x20 PUSH1 0x0 KECCAK256 ADD PUSH1 0x0 SWAP1 SWAP2 SWAP1 SWAP2 SWAP1 SWAP2 POP SSTORE DUP3 PUSH1 0x0 ADD DUP1 SLOAD SWAP1 POP DUP4 PUSH1 0x1 ADD PUSH1 0x0 DUP5 DUP2 MSTORE PUSH1 0x20 ADD SWAP1 DUP2 MSTORE PUSH1 0x20 ADD PUSH1 0x0 KECCAK256 DUP2 SWAP1 SSTORE POP PUSH1 0x1 SWAP1 POP PUSH2 0x1C1D JUMP JUMPDEST PUSH1 0x0 SWAP1 POP JUMPDEST SWAP3 SWAP2 POP POP JUMP JUMPDEST PUSH1 0x0 DUP1 DUP4 PUSH1 0x1 ADD PUSH1 0x0 DUP5 DUP2 MSTORE PUSH1 0x20 ADD SWAP1 DUP2 MSTORE PUSH1 0x20 ADD PUSH1 0x0 KECCAK256 SLOAD SWAP1 POP PUSH1 0x0 DUP2 EQ PUSH2 0x1D2B JUMPI PUSH1 0x0 PUSH1 0x1 DUP3 PUSH2 0x1C55 SWAP2 SWAP1 PUSH2 0x28E0 JUMP JUMPDEST SWAP1 POP PUSH1 0x0 PUSH1 0x1 DUP7 PUSH1 0x0 ADD DUP1 SLOAD SWAP1 POP PUSH2 0x1C6D SWAP2 SWAP1 PUSH2 0x28E0 JUMP JUMPDEST SWAP1 POP DUP2 DUP2 EQ PUSH2 0x1CDC JUMPI PUSH1 0x0 DUP7 PUSH1 0x0 ADD DUP3 DUP2 SLOAD DUP2 LT PUSH2 0x1C8E JUMPI PUSH2 0x1C8D PUSH2 0x2AD0 JUMP JUMPDEST JUMPDEST SWAP1 PUSH1 0x0 MSTORE PUSH1 0x20 PUSH1 0x0 KECCAK256 ADD SLOAD SWAP1 POP DUP1 DUP8 PUSH1 0x0 ADD DUP5 DUP2 SLOAD DUP2 LT PUSH2 0x1CB2 JUMPI PUSH2 0x1CB1 PUSH2 0x2AD0 JUMP JUMPDEST JUMPDEST SWAP1 PUSH1 0x0 MSTORE PUSH1 0x20 PUSH1 0x0 KECCAK256 ADD DUP2 SWAP1 SSTORE POP DUP4 DUP8 PUSH1 0x1 ADD PUSH1 0x0 DUP4 DUP2 MSTORE PUSH1 0x20 ADD SWAP1 DUP2 MSTORE PUSH1 0x20 ADD PUSH1 0x0 KECCAK256 DUP2 SWAP1 SSTORE POP POP JUMPDEST DUP6 PUSH1 0x0 ADD DUP1 SLOAD DUP1 PUSH2 0x1CF0 JUMPI PUSH2 0x1CEF PUSH2 0x2AA1 JUMP JUMPDEST JUMPDEST PUSH1 0x1 SWAP1 SUB DUP2 DUP2 SWAP1 PUSH1 0x0 MSTORE PUSH1 0x20 PUSH1 0x0 KECCAK256 ADD PUSH1 0x0 SWAP1 SSTORE SWAP1 SSTORE DUP6 PUSH1 0x1 ADD PUSH1 0x0 DUP7 DUP2 MSTORE PUSH1 0x20 ADD SWAP1 DUP2 MSTORE PUSH1 0x20 ADD PUSH1 0x0 KECCAK256 PUSH1 0x0 SWAP1 SSTORE PUSH1 0x1 SWAP4 POP POP POP POP PUSH2 0x1D31 JUMP JUMPDEST PUSH1 0x0 SWAP2 POP POP JUMPDEST SWAP3 SWAP2 POP POP JUMP JUMPDEST PUSH1 0x40 MLOAD DUP1 PUSH1 0x40 ADD PUSH1 0x40 MSTORE DUP1 PUSH1 0x2 SWAP1 PUSH1 0x20 DUP3 MUL DUP1 CALLDATASIZE DUP4 CALLDATACOPY DUP1 DUP3 ADD SWAP2 POP POP SWAP1 POP POP SWAP1 JUMP JUMPDEST PUSH1 0x0 DUP2 CALLDATALOAD SWAP1 POP PUSH2 0x1D68 DUP2 PUSH2 0x2E23 JUMP JUMPDEST SWAP3 SWAP2 POP POP JUMP JUMPDEST PUSH1 0x0 DUP2 MLOAD SWAP1 POP PUSH2 0x1D7D DUP2 PUSH2 0x2E3A JUMP JUMPDEST SWAP3 SWAP2 POP POP JUMP JUMPDEST PUSH1 0x0 DUP2 CALLDATALOAD SWAP1 POP PUSH2 0x1D92 DUP2 PUSH2 0x2E51 JUMP JUMPDEST SWAP3 SWAP2 POP POP JUMP JUMPDEST PUSH1 0x0 DUP2 CALLDATALOAD SWAP1 POP PUSH2 0x1DA7 DUP2 PUSH2 0x2E68 JUMP JUMPDEST SWAP3 SWAP2 POP POP JUMP JUMPDEST PUSH1 0x0 DUP1 PUSH1 0x40 DUP4 DUP6 SUB SLT ISZERO PUSH2 0x1DC4 JUMPI PUSH2 0x1DC3 PUSH2 0x2B2E JUMP JUMPDEST JUMPDEST PUSH1 0x0 PUSH2 0x1DD2 DUP6 DUP3 DUP7 ADD PUSH2 0x1D59 JUMP JUMPDEST SWAP3 POP POP PUSH1 0x20 PUSH2 0x1DE3 DUP6 DUP3 DUP7 ADD PUSH2 0x1D83 JUMP JUMPDEST SWAP2 POP POP SWAP3 POP SWAP3 SWAP1 POP JUMP JUMPDEST PUSH1 0x0 PUSH1 0x20 DUP3 DUP5 SUB SLT ISZERO PUSH2 0x1E03 JUMPI PUSH2 0x1E02 PUSH2 0x2B2E JUMP JUMPDEST JUMPDEST PUSH1 0x0 PUSH2 0x1E11 DUP5 DUP3 DUP6 ADD PUSH2 0x1D6E JUMP JUMPDEST SWAP2 POP POP SWAP3 SWAP2 POP POP JUMP JUMPDEST PUSH1 0x0 PUSH1 0x20 DUP3 DUP5 SUB SLT ISZERO PUSH2 0x1E30 JUMPI PUSH2 0x1E2F PUSH2 0x2B2E JUMP JUMPDEST JUMPDEST PUSH1 0x0 PUSH2 0x1E3E DUP5 DUP3 DUP6 ADD PUSH2 0x1D83 JUMP JUMPDEST SWAP2 POP POP SWAP3 SWAP2 POP POP JUMP JUMPDEST PUSH1 0x0 DUP1 PUSH1 0x40 DUP4 DUP6 SUB SLT ISZERO PUSH2 0x1E5E JUMPI PUSH2 0x1E5D PUSH2 0x2B2E JUMP JUMPDEST JUMPDEST PUSH1 0x0 PUSH2 0x1E6C DUP6 DUP3 DUP7 ADD PUSH2 0x1D83 JUMP JUMPDEST SWAP3 POP POP PUSH1 0x20 PUSH2 0x1E7D DUP6 DUP3 DUP7 ADD PUSH2 0x1D59 JUMP JUMPDEST SWAP2 POP POP SWAP3 POP SWAP3 SWAP1 POP JUMP JUMPDEST PUSH1 0x0 DUP1 PUSH1 0x40 DUP4 DUP6 SUB SLT ISZERO PUSH2 0x1E9E JUMPI PUSH2 0x1E9D PUSH2 0x2B2E JUMP JUMPDEST JUMPDEST PUSH1 0x0 PUSH2 0x1EAC DUP6 DUP3 DUP7 ADD PUSH2 0x1D83 JUMP JUMPDEST SWAP3 POP POP PUSH1 0x20 PUSH2 0x1EBD DUP6 DUP3 DUP7 ADD PUSH2 0x1D98 JUMP JUMPDEST SWAP2 POP POP SWAP3 POP SWAP3 SWAP1 POP JUMP JUMPDEST PUSH1 0x0 DUP1 PUSH1 0x0 PUSH1 0x60 DUP5 DUP7 SUB SLT ISZERO PUSH2 0x1EE0 JUMPI PUSH2 0x1EDF PUSH2 0x2B2E JUMP JUMPDEST JUMPDEST PUSH1 0x0 PUSH2 0x1EEE DUP7 DUP3 DUP8 ADD PUSH2 0x1D83 JUMP JUMPDEST SWAP4 POP POP PUSH1 0x20 PUSH2 0x1EFF DUP7 DUP3 DUP8 ADD PUSH2 0x1D98 JUMP JUMPDEST SWAP3 POP POP PUSH1 0x40 PUSH2 0x1F10 DUP7 DUP3 DUP8 ADD PUSH2 0x1D98 JUMP JUMPDEST SWAP2 POP POP SWAP3 POP SWAP3 POP SWAP3 JUMP JUMPDEST PUSH1 0x0 PUSH1 0x20 DUP3 DUP5 SUB SLT ISZERO PUSH2 0x1F30 JUMPI PUSH2 0x1F2F PUSH2 0x2B2E JUMP JUMPDEST JUMPDEST PUSH1 0x0 PUSH2 0x1F3E DUP5 DUP3 DUP6 ADD PUSH2 0x1D98 JUMP JUMPDEST SWAP2 POP POP SWAP3 SWAP2 POP POP JUMP JUMPDEST PUSH1 0x0 DUP1 PUSH1 0x40 DUP4 DUP6 SUB SLT ISZERO PUSH2 0x1F5E JUMPI PUSH2 0x1F5D PUSH2 0x2B2E JUMP JUMPDEST JUMPDEST PUSH1 0x0 PUSH2 0x1F6C DUP6 DUP3 DUP7 ADD PUSH2 0x1D98 JUMP JUMPDEST SWAP3 POP POP PUSH1 0x20 PUSH2 0x1F7D DUP6 DUP3 DUP7 ADD PUSH2 0x1D98 JUMP JUMPDEST SWAP2 POP POP SWAP3 POP SWAP3 SWAP1 POP JUMP JUMPDEST PUSH1 0x0 PUSH2 0x1F93 DUP4 DUP4 PUSH2 0x1FCF JUMP JUMPDEST PUSH1 0x20 DUP4 ADD SWAP1 POP SWAP3 SWAP2 POP POP JUMP JUMPDEST PUSH1 0x0 PUSH2 0x1FAB DUP4 DUP4 PUSH2 0x210F JUMP JUMPDEST PUSH1 0x20 DUP4 ADD SWAP1 POP SWAP3 SWAP2 POP POP JUMP JUMPDEST PUSH1 0x0 PUSH2 0x1FC3 DUP4 DUP4 PUSH2 0x23B9 JUMP JUMPDEST PUSH1 0x20 DUP4 ADD SWAP1 POP SWAP3 SWAP2 POP POP JUMP JUMPDEST PUSH2 0x1FD8 DUP2 PUSH2 0x2914 JUMP JUMPDEST DUP3 MSTORE POP POP JUMP JUMPDEST PUSH2 0x1FE7 DUP2 PUSH2 0x2914 JUMP JUMPDEST DUP3 MSTORE POP POP JUMP JUMPDEST PUSH1 0x0 PUSH2 0x1FF8 DUP3 PUSH2 0x2763 JUMP JUMPDEST PUSH2 0x2002 DUP2 DUP6 PUSH2 0x27B6 JUMP JUMPDEST SWAP4 POP PUSH2 0x200D DUP4 PUSH2 0x2739 JUMP JUMPDEST DUP1 PUSH1 0x0 JUMPDEST DUP4 DUP2 LT ISZERO PUSH2 0x203E JUMPI DUP2 MLOAD PUSH2 0x2025 DUP9 DUP3 PUSH2 0x1F87 JUMP JUMPDEST SWAP8 POP PUSH2 0x2030 DUP4 PUSH2 0x278F JUMP JUMPDEST SWAP3 POP POP PUSH1 0x1 DUP2 ADD SWAP1 POP PUSH2 0x2011 JUMP JUMPDEST POP DUP6 SWAP4 POP POP POP POP SWAP3 SWAP2 POP POP JUMP JUMPDEST PUSH1 0x0 PUSH2 0x2056 DUP3 PUSH2 0x276E JUMP JUMPDEST PUSH2 0x2060 DUP2 DUP6 PUSH2 0x27C7 JUMP JUMPDEST SWAP4 POP PUSH2 0x206B DUP4 PUSH2 0x2749 JUMP JUMPDEST DUP1 PUSH1 0x0 JUMPDEST DUP4 DUP2 LT ISZERO PUSH2 0x209C JUMPI DUP2 MLOAD PUSH2 0x2083 DUP9 DUP3 PUSH2 0x1F9F JUMP JUMPDEST SWAP8 POP PUSH2 0x208E DUP4 PUSH2 0x279C JUMP JUMPDEST SWAP3 POP POP PUSH1 0x1 DUP2 ADD SWAP1 POP PUSH2 0x206F JUMP JUMPDEST POP DUP6 SWAP4 POP POP POP POP SWAP3 SWAP2 POP POP JUMP JUMPDEST PUSH2 0x20B2 DUP2 PUSH2 0x2779 JUMP JUMPDEST PUSH2 0x20BC DUP2 DUP5 PUSH2 0x27D8 JUMP JUMPDEST SWAP3 POP PUSH2 0x20C7 DUP3 PUSH2 0x2759 JUMP JUMPDEST DUP1 PUSH1 0x0 JUMPDEST DUP4 DUP2 LT ISZERO PUSH2 0x20F8 JUMPI DUP2 MLOAD PUSH2 0x20DF DUP8 DUP3 PUSH2 0x1FB7 JUMP JUMPDEST SWAP7 POP PUSH2 0x20EA DUP4 PUSH2 0x27A9 JUMP JUMPDEST SWAP3 POP POP PUSH1 0x1 DUP2 ADD SWAP1 POP PUSH2 0x20CB JUMP JUMPDEST POP POP POP POP POP POP JUMP JUMPDEST PUSH2 0x2109 DUP2 PUSH2 0x2926 JUMP JUMPDEST DUP3 MSTORE POP POP JUMP JUMPDEST PUSH2 0x2118 DUP2 PUSH2 0x2932 JUMP JUMPDEST DUP3 MSTORE POP POP JUMP JUMPDEST PUSH2 0x2127 DUP2 PUSH2 0x2932 JUMP JUMPDEST DUP3 MSTORE POP POP JUMP JUMPDEST PUSH1 0x0 PUSH2 0x2138 DUP3 PUSH2 0x2784 JUMP JUMPDEST PUSH2 0x2142 DUP2 DUP6 PUSH2 0x27EE JUMP JUMPDEST SWAP4 POP PUSH2 0x2152 DUP2 DUP6 PUSH1 0x20 DUP7 ADD PUSH2 0x2966 JUMP JUMPDEST PUSH2 0x215B DUP2 PUSH2 0x2B33 JUMP JUMPDEST DUP5 ADD SWAP2 POP POP SWAP3 SWAP2 POP POP JUMP JUMPDEST PUSH1 0x0 PUSH2 0x2173 PUSH1 0xB DUP4 PUSH2 0x27EE JUMP JUMPDEST SWAP2 POP PUSH2 0x217E DUP3 PUSH2 0x2B44 JUMP JUMPDEST PUSH1 0x20 DUP3 ADD SWAP1 POP SWAP2 SWAP1 POP JUMP JUMPDEST PUSH1 0x0 PUSH2 0x2196 PUSH1 0x1A DUP4 PUSH2 0x27EE JUMP JUMPDEST SWAP2 POP PUSH2 0x21A1 DUP3 PUSH2 0x2B6D JUMP JUMPDEST PUSH1 0x20 DUP3 ADD SWAP1 POP SWAP2 SWAP1 POP JUMP JUMPDEST PUSH1 0x0 PUSH2 0x21B9 PUSH1 0xE DUP4 PUSH2 0x27EE JUMP JUMPDEST SWAP2 POP PUSH2 0x21C4 DUP3 PUSH2 0x2B96 JUMP JUMPDEST PUSH1 0x20 DUP3 ADD SWAP1 POP SWAP2 SWAP1 POP JUMP JUMPDEST PUSH1 0x0 PUSH2 0x21DC PUSH1 0xC DUP4 PUSH2 0x27EE JUMP JUMPDEST SWAP2 POP PUSH2 0x21E7 DUP3 PUSH2 0x2BBF JUMP JUMPDEST PUSH1 0x20 DUP3 ADD SWAP1 POP SWAP2 SWAP1 POP JUMP JUMPDEST PUSH1 0x0 PUSH2 0x21FF PUSH1 0xF DUP4 PUSH2 0x27EE JUMP JUMPDEST SWAP2 POP PUSH2 0x220A DUP3 PUSH2 0x2BE8 JUMP JUMPDEST PUSH1 0x20 DUP3 ADD SWAP1 POP SWAP2 SWAP1 POP JUMP JUMPDEST PUSH1 0x0 PUSH2 0x2222 PUSH1 0x1E DUP4 PUSH2 0x27EE JUMP JUMPDEST SWAP2 POP PUSH2 0x222D DUP3 PUSH2 0x2C11 JUMP JUMPDEST PUSH1 0x20 DUP3 ADD SWAP1 POP SWAP2 SWAP1 POP JUMP JUMPDEST PUSH1 0x0 PUSH2 0x2245 PUSH1 0x18 DUP4 PUSH2 0x27EE JUMP JUMPDEST SWAP2 POP PUSH2 0x2250 DUP3 PUSH2 0x2C3A JUMP JUMPDEST PUSH1 0x20 DUP3 ADD SWAP1 POP SWAP2 SWAP1 POP JUMP JUMPDEST PUSH1 0x0 PUSH2 0x2268 PUSH1 0x15 DUP4 PUSH2 0x27EE JUMP JUMPDEST SWAP2 POP PUSH2 0x2273 DUP3 PUSH2 0x2C63 JUMP JUMPDEST PUSH1 0x20 DUP3 ADD SWAP1 POP SWAP2 SWAP1 POP JUMP JUMPDEST PUSH1 0x0 PUSH2 0x228B PUSH1 0xB DUP4 PUSH2 0x27EE JUMP JUMPDEST SWAP2 POP PUSH2 0x2296 DUP3 PUSH2 0x2C8C JUMP JUMPDEST PUSH1 0x20 DUP3 ADD SWAP1 POP SWAP2 SWAP1 POP JUMP JUMPDEST PUSH1 0x0 PUSH2 0x22AE PUSH1 0x2D DUP4 PUSH2 0x27EE JUMP JUMPDEST SWAP2 POP PUSH2 0x22B9 DUP3 PUSH2 0x2CB5 JUMP JUMPDEST PUSH1 0x40 DUP3 ADD SWAP1 POP SWAP2 SWAP1 POP JUMP JUMPDEST PUSH1 0x0 PUSH2 0x22D1 PUSH1 0x11 DUP4 PUSH2 0x27EE JUMP JUMPDEST SWAP2 POP PUSH2 0x22DC DUP3 PUSH2 0x2D04 JUMP JUMPDEST PUSH1 0x20 DUP3 ADD SWAP1 POP SWAP2 SWAP1 POP JUMP JUMPDEST PUSH1 0x0 PUSH2 0x22F4 PUSH1 0x18 DUP4 PUSH2 0x27EE JUMP JUMPDEST SWAP2 POP PUSH2 0x22FF DUP3 PUSH2 0x2D2D JUMP JUMPDEST PUSH1 0x20 DUP3 ADD SWAP1 POP SWAP2 SWAP1 POP JUMP JUMPDEST PUSH1 0x0 PUSH2 0x2317 PUSH1 0xA DUP4 PUSH2 0x27EE JUMP JUMPDEST SWAP2 POP PUSH2 0x2322 DUP3 PUSH2 0x2D56 JUMP JUMPDEST PUSH1 0x20 DUP3 ADD SWAP1 POP SWAP2 SWAP1 POP JUMP JUMPDEST PUSH1 0x0 PUSH2 0x233A PUSH1 0x0 DUP4 PUSH2 0x27E3 JUMP JUMPDEST SWAP2 POP PUSH2 0x2345 DUP3 PUSH2 0x2D7F JUMP JUMPDEST PUSH1 0x0 DUP3 ADD SWAP1 POP SWAP2 SWAP1 POP JUMP JUMPDEST PUSH1 0x0 PUSH2 0x235D PUSH1 0x28 DUP4 PUSH2 0x27EE JUMP JUMPDEST SWAP2 POP PUSH2 0x2368 DUP3 PUSH2 0x2D82 JUMP JUMPDEST PUSH1 0x40 DUP3 ADD SWAP1 POP SWAP2 SWAP1 POP JUMP JUMPDEST PUSH1 0x0 PUSH2 0x2380 PUSH1 0x1E DUP4 PUSH2 0x27EE JUMP JUMPDEST SWAP2 POP PUSH2 0x238B DUP3 PUSH2 0x2DD1 JUMP JUMPDEST PUSH1 0x20 DUP3 ADD SWAP1 POP SWAP2 SWAP1 POP JUMP JUMPDEST PUSH1 0x0 PUSH2 0x23A3 PUSH1 0x20 DUP4 PUSH2 0x27EE JUMP JUMPDEST SWAP2 POP PUSH2 0x23AE DUP3 PUSH2 0x2DFA JUMP JUMPDEST PUSH1 0x20 DUP3 ADD SWAP1 POP SWAP2 SWAP1 POP JUMP JUMPDEST PUSH2 0x23C2 DUP2 PUSH2 0x295C JUMP JUMPDEST DUP3 MSTORE POP POP JUMP JUMPDEST PUSH2 0x23D1 DUP2 PUSH2 0x295C JUMP JUMPDEST DUP3 MSTORE POP POP JUMP JUMPDEST PUSH1 0x0 PUSH2 0x23E2 DUP3 PUSH2 0x232D JUMP JUMPDEST SWAP2 POP DUP2 SWAP1 POP SWAP2 SWAP1 POP JUMP JUMPDEST PUSH1 0x0 PUSH1 0x20 DUP3 ADD SWAP1 POP PUSH2 0x2401 PUSH1 0x0 DUP4 ADD DUP5 PUSH2 0x1FDE JUMP JUMPDEST SWAP3 SWAP2 POP POP JUMP JUMPDEST PUSH1 0x0 PUSH1 0x60 DUP3 ADD SWAP1 POP PUSH2 0x241C PUSH1 0x0 DUP4 ADD DUP7 PUSH2 0x1FDE JUMP JUMPDEST PUSH2 0x2429 PUSH1 0x20 DUP4 ADD DUP6 PUSH2 0x1FDE JUMP JUMPDEST PUSH2 0x2436 PUSH1 0x40 DUP4 ADD DUP5 PUSH2 0x23C8 JUMP JUMPDEST SWAP5 SWAP4 POP POP POP POP JUMP JUMPDEST PUSH1 0x0 PUSH1 0x20 DUP3 ADD SWAP1 POP DUP2 DUP2 SUB PUSH1 0x0 DUP4 ADD MSTORE PUSH2 0x2458 DUP2 DUP5 PUSH2 0x1FED JUMP JUMPDEST SWAP1 POP SWAP3 SWAP2 POP POP JUMP JUMPDEST PUSH1 0x0 PUSH1 0x20 DUP3 ADD SWAP1 POP DUP2 DUP2 SUB PUSH1 0x0 DUP4 ADD MSTORE PUSH2 0x247A DUP2 DUP5 PUSH2 0x204B JUMP JUMPDEST SWAP1 POP SWAP3 SWAP2 POP POP JUMP JUMPDEST PUSH1 0x0 PUSH1 0x40 DUP3 ADD SWAP1 POP PUSH2 0x2497 PUSH1 0x0 DUP4 ADD DUP5 PUSH2 0x20A9 JUMP JUMPDEST SWAP3 SWAP2 POP POP JUMP JUMPDEST PUSH1 0x0 PUSH1 0x20 DUP3 ADD SWAP1 POP PUSH2 0x24B2 PUSH1 0x0 DUP4 ADD DUP5 PUSH2 0x2100 JUMP JUMPDEST SWAP3 SWAP2 POP POP JUMP JUMPDEST PUSH1 0x0 PUSH1 0x40 DUP3 ADD SWAP1 POP PUSH2 0x24CD PUSH1 0x0 DUP4 ADD DUP6 PUSH2 0x2100 JUMP JUMPDEST PUSH2 0x24DA PUSH1 0x20 DUP4 ADD DUP5 PUSH2 0x23C8 JUMP JUMPDEST SWAP4 SWAP3 POP POP POP JUMP JUMPDEST PUSH1 0x0 PUSH1 0x20 DUP3 ADD SWAP1 POP PUSH2 0x24F6 PUSH1 0x0 DUP4 ADD DUP5 PUSH2 0x211E JUMP JUMPDEST SWAP3 SWAP2 POP POP JUMP JUMPDEST PUSH1 0x0 PUSH1 0x20 DUP3 ADD SWAP1 POP DUP2 DUP2 SUB PUSH1 0x0 DUP4 ADD MSTORE PUSH2 0x2516 DUP2 DUP5 PUSH2 0x212D JUMP JUMPDEST SWAP1 POP SWAP3 SWAP2 POP POP JUMP JUMPDEST PUSH1 0x0 PUSH1 0x20 DUP3 ADD SWAP1 POP DUP2 DUP2 SUB PUSH1 0x0 DUP4 ADD MSTORE PUSH2 0x2537 DUP2 PUSH2 0x2166 JUMP JUMPDEST SWAP1 POP SWAP2 SWAP1 POP JUMP JUMPDEST PUSH1 0x0 PUSH1 0x20 DUP3 ADD SWAP1 POP DUP2 DUP2 SUB PUSH1 0x0 DUP4 ADD MSTORE PUSH2 0x2557 DUP2 PUSH2 0x2189 JUMP JUMPDEST SWAP1 POP SWAP2 SWAP1 POP JUMP JUMPDEST PUSH1 0x0 PUSH1 0x20 DUP3 ADD SWAP1 POP DUP2 DUP2 SUB PUSH1 0x0 DUP4 ADD MSTORE PUSH2 0x2577 DUP2 PUSH2 0x21AC JUMP JUMPDEST SWAP1 POP SWAP2 SWAP1 POP JUMP JUMPDEST PUSH1 0x0 PUSH1 0x20 DUP3 ADD SWAP1 POP DUP2 DUP2 SUB PUSH1 0x0 DUP4 ADD MSTORE PUSH2 0x2597 DUP2 PUSH2 0x21CF JUMP JUMPDEST SWAP1 POP SWAP2 SWAP1 POP JUMP JUMPDEST PUSH1 0x0 PUSH1 0x20 DUP3 ADD SWAP1 POP DUP2 DUP2 SUB PUSH1 0x0 DUP4 ADD MSTORE PUSH2 0x25B7 DUP2 PUSH2 0x21F2 JUMP JUMPDEST SWAP1 POP SWAP2 SWAP1 POP JUMP JUMPDEST PUSH1 0x0 PUSH1 0x20 DUP3 ADD SWAP1 POP DUP2 DUP2 SUB PUSH1 0x0 DUP4 ADD MSTORE PUSH2 0x25D7 DUP2 PUSH2 0x2215 JUMP JUMPDEST SWAP1 POP SWAP2 SWAP1 POP JUMP JUMPDEST PUSH1 0x0 PUSH1 0x20 DUP3 ADD SWAP1 POP DUP2 DUP2 SUB PUSH1 0x0 DUP4 ADD MSTORE PUSH2 0x25F7 DUP2 PUSH2 0x2238 JUMP JUMPDEST SWAP1 POP SWAP2 SWAP1 POP JUMP JUMPDEST PUSH1 0x0 PUSH1 0x20 DUP3 ADD SWAP1 POP DUP2 DUP2 SUB PUSH1 0x0 DUP4 ADD MSTORE PUSH2 0x2617 DUP2 PUSH2 0x225B JUMP JUMPDEST SWAP1 POP SWAP2 SWAP1 POP JUMP JUMPDEST PUSH1 0x0 PUSH1 0x20 DUP3 ADD SWAP1 POP DUP2 DUP2 SUB PUSH1 0x0 DUP4 ADD MSTORE PUSH2 0x2637 DUP2 PUSH2 0x227E JUMP JUMPDEST SWAP1 POP SWAP2 SWAP1 POP JUMP JUMPDEST PUSH1 0x0 PUSH1 0x20 DUP3 ADD SWAP1 POP DUP2 DUP2 SUB PUSH1 0x0 DUP4 ADD MSTORE PUSH2 0x2657 DUP2 PUSH2 0x22A1 JUMP JUMPDEST SWAP1 POP SWAP2 SWAP1 POP JUMP JUMPDEST PUSH1 0x0 PUSH1 0x20 DUP3 ADD SWAP1 POP DUP2 DUP2 SUB PUSH1 0x0 DUP4 ADD MSTORE PUSH2 0x2677 DUP2 PUSH2 0x22C4 JUMP JUMPDEST SWAP1 POP SWAP2 SWAP1 POP JUMP JUMPDEST PUSH1 0x0 PUSH1 0x20 DUP3 ADD SWAP1 POP DUP2 DUP2 SUB PUSH1 0x0 DUP4 ADD MSTORE PUSH2 0x2697 DUP2 PUSH2 0x22E7 JUMP JUMPDEST SWAP1 POP SWAP2 SWAP1 POP JUMP JUMPDEST PUSH1 0x0 PUSH1 0x20 DUP3 ADD SWAP1 POP DUP2 DUP2 SUB PUSH1 0x0 DUP4 ADD MSTORE PUSH2 0x26B7 DUP2 PUSH2 0x230A JUMP JUMPDEST SWAP1 POP SWAP2 SWAP1 POP JUMP JUMPDEST PUSH1 0x0 PUSH1 0x20 DUP3 ADD SWAP1 POP DUP2 DUP2 SUB PUSH1 0x0 DUP4 ADD MSTORE PUSH2 0x26D7 DUP2 PUSH2 0x2350 JUMP JUMPDEST SWAP1 POP SWAP2 SWAP1 POP JUMP JUMPDEST PUSH1 0x0 PUSH1 0x20 DUP3 ADD SWAP1 POP DUP2 DUP2 SUB PUSH1 0x0 DUP4 ADD MSTORE PUSH2 0x26F7 DUP2 PUSH2 0x2373 JUMP JUMPDEST SWAP1 POP SWAP2 SWAP1 POP JUMP JUMPDEST PUSH1 0x0 PUSH1 0x20 DUP3 ADD SWAP1 POP DUP2 DUP2 SUB PUSH1 0x0 DUP4 ADD MSTORE PUSH2 0x2717 DUP2 PUSH2 0x2396 JUMP JUMPDEST SWAP1 POP SWAP2 SWAP1 POP JUMP JUMPDEST PUSH1 0x0 PUSH1 0x20 DUP3 ADD SWAP1 POP PUSH2 0x2733 PUSH1 0x0 DUP4 ADD DUP5 PUSH2 0x23C8 JUMP JUMPDEST SWAP3 SWAP2 POP POP JUMP JUMPDEST PUSH1 0x0 DUP2 SWAP1 POP PUSH1 0x20 DUP3 ADD SWAP1 POP SWAP2 SWAP1 POP JUMP JUMPDEST PUSH1 0x0 DUP2 SWAP1 POP PUSH1 0x20 DUP3 ADD SWAP1 POP SWAP2 SWAP1 POP JUMP JUMPDEST PUSH1 0x0 DUP2 SWAP1 POP SWAP2 SWAP1 POP JUMP JUMPDEST PUSH1 0x0 DUP2 MLOAD SWAP1 POP SWAP2 SWAP1 POP JUMP JUMPDEST PUSH1 0x0 DUP2 MLOAD SWAP1 POP SWAP2 SWAP1 POP JUMP JUMPDEST PUSH1 0x0 PUSH1 0x2 SWAP1 POP SWAP2 SWAP1 POP JUMP JUMPDEST PUSH1 0x0 DUP2 MLOAD SWAP1 POP SWAP2 SWAP1 POP JUMP JUMPDEST PUSH1 0x0 PUSH1 0x20 DUP3 ADD SWAP1 POP SWAP2 SWAP1 POP JUMP JUMPDEST PUSH1 0x0 PUSH1 0x20 DUP3 ADD SWAP1 POP SWAP2 SWAP1 POP JUMP JUMPDEST PUSH1 0x0 PUSH1 0x20 DUP3 ADD SWAP1 POP SWAP2 SWAP1 POP JUMP JUMPDEST PUSH1 0x0 DUP3 DUP3 MSTORE PUSH1 0x20 DUP3 ADD SWAP1 POP SWAP3 SWAP2 POP POP JUMP JUMPDEST PUSH1 0x0 DUP3 DUP3 MSTORE PUSH1 0x20 DUP3 ADD SWAP1 POP SWAP3 SWAP2 POP POP JUMP JUMPDEST PUSH1 0x0 DUP2 SWAP1 POP SWAP3 SWAP2 POP POP JUMP JUMPDEST PUSH1 0x0 DUP2 SWAP1 POP SWAP3 SWAP2 POP POP JUMP JUMPDEST PUSH1 0x0 DUP3 DUP3 MSTORE PUSH1 0x20 DUP3 ADD SWAP1 POP SWAP3 SWAP2 POP POP JUMP JUMPDEST PUSH1 0x0 PUSH2 0x280A DUP3 PUSH2 0x295C JUMP JUMPDEST SWAP2 POP PUSH2 0x2815 DUP4 PUSH2 0x295C JUMP JUMPDEST SWAP3 POP DUP3 PUSH32 0xFFFFFFFFFFFFFFFFFFFFFFFFFFFFFFFFFFFFFFFFFFFFFFFFFFFFFFFFFFFFFFFF SUB DUP3 GT ISZERO PUSH2 0x284A JUMPI PUSH2 0x2849 PUSH2 0x2A14 JUMP JUMPDEST JUMPDEST DUP3 DUP3 ADD SWAP1 POP SWAP3 SWAP2 POP POP JUMP JUMPDEST PUSH1 0x0 PUSH2 0x2860 DUP3 PUSH2 0x295C JUMP JUMPDEST SWAP2 POP PUSH2 0x286B DUP4 PUSH2 0x295C JUMP JUMPDEST SWAP3 POP DUP3 PUSH2 0x287B JUMPI PUSH2 0x287A PUSH2 0x2A43 JUMP JUMPDEST JUMPDEST DUP3 DUP3 DIV SWAP1 POP SWAP3 SWAP2 POP POP JUMP JUMPDEST PUSH1 0x0 PUSH2 0x2891 DUP3 PUSH2 0x295C JUMP JUMPDEST SWAP2 POP PUSH2 0x289C DUP4 PUSH2 0x295C JUMP JUMPDEST SWAP3 POP DUP2 PUSH32 0xFFFFFFFFFFFFFFFFFFFFFFFFFFFFFFFFFFFFFFFFFFFFFFFFFFFFFFFFFFFFFFFF DIV DUP4 GT DUP3 ISZERO ISZERO AND ISZERO PUSH2 0x28D5 JUMPI PUSH2 0x28D4 PUSH2 0x2A14 JUMP JUMPDEST JUMPDEST DUP3 DUP3 MUL SWAP1 POP SWAP3 SWAP2 POP POP JUMP JUMPDEST PUSH1 0x0 PUSH2 0x28EB DUP3 PUSH2 0x295C JUMP JUMPDEST SWAP2 POP PUSH2 0x28F6 DUP4 PUSH2 0x295C JUMP JUMPDEST SWAP3 POP DUP3 DUP3 LT ISZERO PUSH2 0x2909 JUMPI PUSH2 0x2908 PUSH2 0x2A14 JUMP JUMPDEST JUMPDEST DUP3 DUP3 SUB SWAP1 POP SWAP3 SWAP2 POP POP JUMP JUMPDEST PUSH1 0x0 PUSH2 0x291F DUP3 PUSH2 0x293C JUMP JUMPDEST SWAP1 POP SWAP2 SWAP1 POP JUMP JUMPDEST PUSH1 0x0 DUP2 ISZERO ISZERO SWAP1 POP SWAP2 SWAP1 POP JUMP JUMPDEST PUSH1 0x0 DUP2 SWAP1 POP SWAP2 SWAP1 POP JUMP JUMPDEST PUSH1 0x0 PUSH20 0xFFFFFFFFFFFFFFFFFFFFFFFFFFFFFFFFFFFFFFFF DUP3 AND SWAP1 POP SWAP2 SWAP1 POP JUMP JUMPDEST PUSH1 0x0 DUP2 SWAP1 POP SWAP2 SWAP1 POP JUMP JUMPDEST PUSH1 0x0 JUMPDEST DUP4 DUP2 LT ISZERO PUSH2 0x2984 JUMPI DUP1 DUP3 ADD MLOAD DUP2 DUP5 ADD MSTORE PUSH1 0x20 DUP2 ADD SWAP1 POP PUSH2 0x2969 JUMP JUMPDEST DUP4 DUP2 GT ISZERO PUSH2 0x2993 JUMPI PUSH1 0x0 DUP5 DUP5 ADD MSTORE JUMPDEST POP POP POP POP JUMP JUMPDEST PUSH1 0x0 PUSH1 0x2 DUP3 DIV SWAP1 POP PUSH1 0x1 DUP3 AND DUP1 PUSH2 0x29B1 JUMPI PUSH1 0x7F DUP3 AND SWAP2 POP JUMPDEST PUSH1 0x20 DUP3 LT DUP2 EQ ISZERO PUSH2 0x29C5 JUMPI PUSH2 0x29C4 PUSH2 0x2A72 JUMP JUMPDEST JUMPDEST POP SWAP2 SWAP1 POP JUMP JUMPDEST PUSH1 0x0 PUSH2 0x29D6 DUP3 PUSH2 0x295C JUMP JUMPDEST SWAP2 POP PUSH32 0xFFFFFFFFFFFFFFFFFFFFFFFFFFFFFFFFFFFFFFFFFFFFFFFFFFFFFFFFFFFFFFFF DUP3 EQ ISZERO PUSH2 0x2A09 JUMPI PUSH2 0x2A08 PUSH2 0x2A14 JUMP JUMPDEST JUMPDEST PUSH1 0x1 DUP3 ADD SWAP1 POP SWAP2 SWAP1 POP JUMP JUMPDEST PUSH32 0x4E487B7100000000000000000000000000000000000000000000000000000000 PUSH1 0x0 MSTORE PUSH1 0x11 PUSH1 0x4 MSTORE PUSH1 0x24 PUSH1 0x0 REVERT JUMPDEST PUSH32 0x4E487B7100000000000000000000000000000000000000000000000000000000 PUSH1 0x0 MSTORE PUSH1 0x12 PUSH1 0x4 MSTORE PUSH1 0x24 PUSH1 0x0 REVERT JUMPDEST PUSH32 0x4E487B7100000000000000000000000000000000000000000000000000000000 PUSH1 0x0 MSTORE PUSH1 0x22 PUSH1 0x4 MSTORE PUSH1 0x24 PUSH1 0x0 REVERT JUMPDEST PUSH32 0x4E487B7100000000000000000000000000000000000000000000000000000000 PUSH1 0x0 MSTORE PUSH1 0x31 PUSH1 0x4 MSTORE PUSH1 0x24 PUSH1 0x0 REVERT JUMPDEST PUSH32 0x4E487B7100000000000000000000000000000000000000000000000000000000 PUSH1 0x0 MSTORE PUSH1 0x32 PUSH1 0x4 MSTORE PUSH1 0x24 PUSH1 0x0 REVERT JUMPDEST PUSH32 0x4E487B7100000000000000000000000000000000000000000000000000000000 PUSH1 0x0 MSTORE PUSH1 0x41 PUSH1 0x4 MSTORE PUSH1 0x24 PUSH1 0x0 REVERT JUMPDEST PUSH1 0x0 DUP1 REVERT JUMPDEST PUSH1 0x0 PUSH1 0x1F NOT PUSH1 0x1F DUP4 ADD AND SWAP1 POP SWAP2 SWAP1 POP JUMP JUMPDEST PUSH32 0x5745495244204552524F52000000000000000000000000000000000000000000 PUSH1 0x0 DUP3 ADD MSTORE POP JUMP JUMPDEST PUSH32 0x50524F445543542053414C45204953204E4F5420414354495645000000000000 PUSH1 0x0 DUP3 ADD MSTORE POP JUMP JUMPDEST PUSH32 0x636F756C64206E6F742073656E64000000000000000000000000000000000000 PUSH1 0x0 DUP3 ADD MSTORE POP JUMP JUMPDEST PUSH32 0x4F5554204F462053544F434B0000000000000000000000000000000000000000 PUSH1 0x0 DUP3 ADD MSTORE POP JUMP JUMPDEST PUSH32 0x5472616E73666572206661696C65640000000000000000000000000000000000 PUSH1 0x0 DUP3 ADD MSTORE POP JUMP JUMPDEST PUSH32 0x44616F6D61727450726F647563744A61723A205745495244204552524F520000 PUSH1 0x0 DUP3 ADD MSTORE POP JUMP JUMPDEST PUSH32 0x50524F44554354204E4F542052454C4541534544205945540000000000000000 PUSH1 0x0 DUP3 ADD MSTORE POP JUMP JUMPDEST PUSH32 0x636F756C64206E6F742073656E6420726566756E640000000000000000000000 PUSH1 0x0 DUP3 ADD MSTORE POP JUMP JUMPDEST PUSH32 0x50524F4455435420343034000000000000000000000000000000000000000000 PUSH1 0x0 DUP3 ADD MSTORE POP JUMP JUMPDEST PUSH32 0x44616F6D61727450726F647563744A61723A2050524F445543542053414C4520 PUSH1 0x0 DUP3 ADD MSTORE PUSH32 0x4953204E4F542041435449564500000000000000000000000000000000000000 PUSH1 0x20 DUP3 ADD MSTORE POP JUMP JUMPDEST PUSH32 0x594F5552204E4F5420494E205155455545000000000000000000000000000000 PUSH1 0x0 DUP3 ADD MSTORE POP JUMP JUMPDEST PUSH32 0x50524F4455435420414C52454144592052454C45415345440000000000000000 PUSH1 0x0 DUP3 ADD MSTORE POP JUMP JUMPDEST PUSH32 0x4E4F5420454E4F55474800000000000000000000000000000000000000000000 PUSH1 0x0 DUP3 ADD MSTORE POP JUMP JUMPDEST POP JUMP JUMPDEST PUSH32 0x44616F6D61727450726F647563744A61723A20594F555220414C524541445920 PUSH1 0x0 DUP3 ADD MSTORE PUSH32 0x494E205155455545000000000000000000000000000000000000000000000000 PUSH1 0x20 DUP3 ADD MSTORE POP JUMP JUMPDEST PUSH32 0x44616F6D61727450726F647563744A61723A2050524F44554354203430340000 PUSH1 0x0 DUP3 ADD MSTORE POP JUMP JUMPDEST PUSH32 0x44616F6D61727450726F647563744A61723A2051554555452049532046554C4C PUSH1 0x0 DUP3 ADD MSTORE POP JUMP JUMPDEST PUSH2 0x2E2C DUP2 PUSH2 0x2914 JUMP JUMPDEST DUP2 EQ PUSH2 0x2E37 JUMPI PUSH1 0x0 DUP1 REVERT JUMPDEST POP JUMP JUMPDEST PUSH2 0x2E43 DUP2 PUSH2 0x2926 JUMP JUMPDEST DUP2 EQ PUSH2 0x2E4E JUMPI PUSH1 0x0 DUP1 REVERT JUMPDEST POP JUMP JUMPDEST PUSH2 0x2E5A DUP2 PUSH2 0x2932 JUMP JUMPDEST DUP2 EQ PUSH2 0x2E65 JUMPI PUSH1 0x0 DUP1 REVERT JUMPDEST POP JUMP JUMPDEST PUSH2 0x2E71 DUP2 PUSH2 0x295C JUMP JUMPDEST DUP2 EQ PUSH2 0x2E7C JUMPI PUSH1 0x0 DUP1 REVERT JUMPDEST POP JUMP INVALID LOG2 PUSH5 0x6970667358 0x22 SLT KECCAK256 EXTCODESIZE BYTE ISZERO 0xA5 STATICCALL 0xFC 0x2E 0x4C 0xC4 0xEE PUSH25 0xFE4692B2756644FA16FD6EF2247E27387E4744561964736F6C PUSH4 0x43000807 STOP CALLER "
		},
		"gasEstimates": {
			"creation": {
				"codeDepositCost": "2391400",
				"executionCost": "infinite",
				"totalCost": "infinite"
			},
			"external": {
				"_mint(address,bytes32)": "infinite",
				"amountPaid(bytes32,address)": "3162",
				"candy()": "2602",
				"coefficients(bytes32)": "2854",
				"currentStreaks(bytes32,address)": "3140",
				"currentX(bytes32)": "2855",
				"getAllProducts()": "infinite",
				"getEtherAmountForX(bytes32,uint256,uint256)": "infinite",
				"getInLine(bytes32,uint256)": "infinite",
				"getJar(bytes32)": "2847",
				"getPriceChangeForPrice(uint256,uint256)": "infinite",
				"getQue(bytes32)": "infinite",
				"getQueueIndex(bytes32,address)": "infinite",
				"getRelase(bytes32)": "infinite",
				"getRemaningAmountForIndexInQueue(bytes32,uint256)": "infinite",
				"gitcoin()": "447",
				"initialCandyPrice(bytes32)": "2854",
				"initialEthPrice(bytes32)": "2877",
				"isActive(bytes32)": "2863",
				"isInStock(bytes32)": "infinite",
				"jar(bytes32)": "2809",
				"lastPaidBlock(bytes32,address)": "3161",
				"name()": "infinite",
				"products(uint256)": "4994",
				"quantities(bytes32)": "2876",
				"release(bytes32)": "2833",
				"requestMintInQueue(bytes32,uint256)": "infinite",
				"requestMintWithEth(bytes32)": "infinite",
				"sqrt(uint256)": "infinite",
				"streakMaxInterval()": "2497",
				"streakMinInterval()": "2520"
			}
		},
		"methodIdentifiers": {
			"_mint(address,bytes32)": "c5169275",
			"amountPaid(bytes32,address)": "4424979a",
			"candy()": "f616ce3c",
			"coefficients(bytes32)": "5f9ed34e",
			"currentStreaks(bytes32,address)": "6cd65a97",
			"currentX(bytes32)": "0c27242d",
			"getAllProducts()": "02ee3a52",
			"getEtherAmountForX(bytes32,uint256,uint256)": "5be2c43c",
			"getInLine(bytes32,uint256)": "85848a12",
			"getJar(bytes32)": "ceb4bf50",
			"getPriceChangeForPrice(uint256,uint256)": "31640096",
			"getQue(bytes32)": "f96e4e4a",
			"getQueueIndex(bytes32,address)": "16835a07",
			"getRelase(bytes32)": "17afb0ee",
			"getRemaningAmountForIndexInQueue(bytes32,uint256)": "e5a65259",
			"gitcoin()": "05f02ff2",
			"initialCandyPrice(bytes32)": "d5c76528",
			"initialEthPrice(bytes32)": "0f689083",
			"isActive(bytes32)": "5c36901c",
			"isInStock(bytes32)": "8f39991e",
			"jar(bytes32)": "e04d78b0",
			"lastPaidBlock(bytes32,address)": "ac32917d",
			"name()": "06fdde03",
			"products(uint256)": "7acc0b20",
			"quantities(bytes32)": "63950125",
			"release(bytes32)": "67d42a8b",
			"requestMintInQueue(bytes32,uint256)": "7e2c6e3b",
			"requestMintWithEth(bytes32)": "dbbc63ef",
			"sqrt(uint256)": "677342ce",
			"streakMaxInterval()": "09101b95",
			"streakMinInterval()": "06b1c777"
		}
	},
	"abi": [
		{
			"inputs": [
				{
					"internalType": "string",
					"name": "name_",
					"type": "string"
				},
				{
					"internalType": "address",
					"name": "candy_",
					"type": "address"
				},
				{
					"internalType": "bytes32[]",
					"name": "products_",
					"type": "bytes32[]"
				},
				{
					"internalType": "uint256[]",
					"name": "quant_",
					"type": "uint256[]"
				},
				{
					"internalType": "uint256[]",
					"name": "coef_",
					"type": "uint256[]"
				},
				{
					"internalType": "uint256[]",
					"name": "release_",
					"type": "uint256[]"
				},
				{
					"internalType": "uint256[]",
					"name": "ethPrice_",
					"type": "uint256[]"
				},
				{
					"internalType": "uint256[]",
					"name": "candyPrice_",
					"type": "uint256[]"
				}
			],
			"stateMutability": "nonpayable",
			"type": "constructor"
		},
		{
			"inputs": [
				{
					"internalType": "address",
					"name": "to",
					"type": "address"
				},
				{
					"internalType": "bytes32",
					"name": "productId",
					"type": "bytes32"
				}
			],
			"name": "_mint",
			"outputs": [],
			"stateMutability": "nonpayable",
			"type": "function"
		},
		{
			"inputs": [
				{
					"internalType": "bytes32",
					"name": "",
					"type": "bytes32"
				},
				{
					"internalType": "address",
					"name": "",
					"type": "address"
				}
			],
			"name": "amountPaid",
			"outputs": [
				{
					"internalType": "uint256",
					"name": "",
					"type": "uint256"
				}
			],
			"stateMutability": "view",
			"type": "function"
		},
		{
			"inputs": [],
			"name": "candy",
			"outputs": [
				{
					"internalType": "address",
					"name": "",
					"type": "address"
				}
			],
			"stateMutability": "view",
			"type": "function"
		},
		{
			"inputs": [
				{
					"internalType": "bytes32",
					"name": "",
					"type": "bytes32"
				}
			],
			"name": "coefficients",
			"outputs": [
				{
					"internalType": "uint256",
					"name": "",
					"type": "uint256"
				}
			],
			"stateMutability": "view",
			"type": "function"
		},
		{
			"inputs": [
				{
					"internalType": "bytes32",
					"name": "",
					"type": "bytes32"
				},
				{
					"internalType": "address",
					"name": "",
					"type": "address"
				}
			],
			"name": "currentStreaks",
			"outputs": [
				{
					"internalType": "uint256",
					"name": "",
					"type": "uint256"
				}
			],
			"stateMutability": "view",
			"type": "function"
		},
		{
			"inputs": [
				{
					"internalType": "bytes32",
					"name": "",
					"type": "bytes32"
				}
			],
			"name": "currentX",
			"outputs": [
				{
					"internalType": "uint256",
					"name": "",
					"type": "uint256"
				}
			],
			"stateMutability": "view",
			"type": "function"
		},
		{
			"inputs": [],
			"name": "getAllProducts",
			"outputs": [
				{
					"internalType": "bytes32[]",
					"name": "",
					"type": "bytes32[]"
				}
			],
			"stateMutability": "view",
			"type": "function"
		},
		{
			"inputs": [
				{
					"internalType": "bytes32",
					"name": "productId",
					"type": "bytes32"
				},
				{
					"internalType": "uint256",
					"name": "x",
					"type": "uint256"
				},
				{
					"internalType": "uint256",
					"name": "k4",
					"type": "uint256"
				}
			],
			"name": "getEtherAmountForX",
			"outputs": [
				{
					"internalType": "uint256",
					"name": "",
					"type": "uint256"
				}
			],
			"stateMutability": "view",
			"type": "function"
		},
		{
			"inputs": [
				{
					"internalType": "bytes32",
					"name": "productId",
					"type": "bytes32"
				},
				{
					"internalType": "uint256",
					"name": "candyAmount",
					"type": "uint256"
				}
			],
			"name": "getInLine",
			"outputs": [],
			"stateMutability": "nonpayable",
			"type": "function"
		},
		{
			"inputs": [
				{
					"internalType": "bytes32",
					"name": "productId",
					"type": "bytes32"
				}
			],
			"name": "getJar",
			"outputs": [
				{
					"internalType": "uint256",
					"name": "",
					"type": "uint256"
				}
			],
			"stateMutability": "view",
			"type": "function"
		},
		{
			"inputs": [
				{
					"internalType": "uint256",
					"name": "price",
					"type": "uint256"
				},
				{
					"internalType": "uint256",
					"name": "coef_",
					"type": "uint256"
				}
			],
			"name": "getPriceChangeForPrice",
			"outputs": [
				{
					"internalType": "uint256",
					"name": "",
					"type": "uint256"
				}
			],
			"stateMutability": "pure",
			"type": "function"
		},
		{
			"inputs": [
				{
					"internalType": "bytes32",
					"name": "productId",
					"type": "bytes32"
				}
			],
			"name": "getQue",
			"outputs": [
				{
					"internalType": "address[]",
					"name": "",
					"type": "address[]"
				}
			],
			"stateMutability": "view",
			"type": "function"
		},
		{
			"inputs": [
				{
					"internalType": "bytes32",
					"name": "productId",
					"type": "bytes32"
				},
				{
					"internalType": "address",
					"name": "addr",
					"type": "address"
				}
			],
			"name": "getQueueIndex",
			"outputs": [
				{
					"internalType": "bool",
					"name": "",
					"type": "bool"
				},
				{
					"internalType": "uint256",
					"name": "",
					"type": "uint256"
				}
			],
			"stateMutability": "view",
			"type": "function"
		},
		{
			"inputs": [
				{
					"internalType": "bytes32",
					"name": "productId",
					"type": "bytes32"
				}
			],
			"name": "getRelase",
			"outputs": [
				{
					"internalType": "uint256[2]",
					"name": "",
					"type": "uint256[2]"
				}
			],
			"stateMutability": "view",
			"type": "function"
		},
		{
			"inputs": [
				{
					"internalType": "bytes32",
					"name": "productId",
					"type": "bytes32"
				},
				{
					"internalType": "uint256",
					"name": "queueIndex",
					"type": "uint256"
				}
			],
			"name": "getRemaningAmountForIndexInQueue",
			"outputs": [
				{
					"internalType": "uint256",
					"name": "",
					"type": "uint256"
				}
			],
			"stateMutability": "view",
			"type": "function"
		},
		{
			"inputs": [],
			"name": "gitcoin",
			"outputs": [
				{
					"internalType": "address",
					"name": "",
					"type": "address"
				}
			],
			"stateMutability": "view",
			"type": "function"
		},
		{
			"inputs": [
				{
					"internalType": "bytes32",
					"name": "",
					"type": "bytes32"
				}
			],
			"name": "initialCandyPrice",
			"outputs": [
				{
					"internalType": "uint256",
					"name": "",
					"type": "uint256"
				}
			],
			"stateMutability": "view",
			"type": "function"
		},
		{
			"inputs": [
				{
					"internalType": "bytes32",
					"name": "",
					"type": "bytes32"
				}
			],
			"name": "initialEthPrice",
			"outputs": [
				{
					"internalType": "uint256",
					"name": "",
					"type": "uint256"
				}
			],
			"stateMutability": "view",
			"type": "function"
		},
		{
			"inputs": [
				{
					"internalType": "bytes32",
					"name": "",
					"type": "bytes32"
				}
			],
			"name": "isActive",
			"outputs": [
				{
					"internalType": "bool",
					"name": "",
					"type": "bool"
				}
			],
			"stateMutability": "view",
			"type": "function"
		},
		{
			"inputs": [
				{
					"internalType": "bytes32",
					"name": "productId",
					"type": "bytes32"
				}
			],
			"name": "isInStock",
			"outputs": [
				{
					"internalType": "bool",
					"name": "",
					"type": "bool"
				}
			],
			"stateMutability": "view",
			"type": "function"
		},
		{
			"inputs": [
				{
					"internalType": "bytes32",
					"name": "",
					"type": "bytes32"
				}
			],
			"name": "jar",
			"outputs": [
				{
					"internalType": "uint256",
					"name": "",
					"type": "uint256"
				}
			],
			"stateMutability": "view",
			"type": "function"
		},
		{
			"inputs": [
				{
					"internalType": "bytes32",
					"name": "",
					"type": "bytes32"
				},
				{
					"internalType": "address",
					"name": "",
					"type": "address"
				}
			],
			"name": "lastPaidBlock",
			"outputs": [
				{
					"internalType": "uint256",
					"name": "",
					"type": "uint256"
				}
			],
			"stateMutability": "view",
			"type": "function"
		},
		{
			"inputs": [],
			"name": "name",
			"outputs": [
				{
					"internalType": "string",
					"name": "",
					"type": "string"
				}
			],
			"stateMutability": "view",
			"type": "function"
		},
		{
			"inputs": [
				{
					"internalType": "uint256",
					"name": "",
					"type": "uint256"
				}
			],
			"name": "products",
			"outputs": [
				{
					"internalType": "bytes32",
					"name": "",
					"type": "bytes32"
				}
			],
			"stateMutability": "view",
			"type": "function"
		},
		{
			"inputs": [
				{
					"internalType": "bytes32",
					"name": "",
					"type": "bytes32"
				}
			],
			"name": "quantities",
			"outputs": [
				{
					"internalType": "uint256",
					"name": "",
					"type": "uint256"
				}
			],
			"stateMutability": "view",
			"type": "function"
		},
		{
			"inputs": [
				{
					"internalType": "bytes32",
					"name": "",
					"type": "bytes32"
				}
			],
			"name": "release",
			"outputs": [
				{
					"internalType": "uint256",
					"name": "",
					"type": "uint256"
				}
			],
			"stateMutability": "view",
			"type": "function"
		},
		{
			"inputs": [
				{
					"internalType": "bytes32",
					"name": "productId",
					"type": "bytes32"
				},
				{
					"internalType": "uint256",
					"name": "candyAmount",
					"type": "uint256"
				}
			],
			"name": "requestMintInQueue",
			"outputs": [],
			"stateMutability": "nonpayable",
			"type": "function"
		},
		{
			"inputs": [
				{
					"internalType": "bytes32",
					"name": "productId",
					"type": "bytes32"
				}
			],
			"name": "requestMintWithEth",
			"outputs": [],
			"stateMutability": "payable",
			"type": "function"
		},
		{
			"inputs": [
				{
					"internalType": "uint256",
					"name": "x",
					"type": "uint256"
				}
			],
			"name": "sqrt",
			"outputs": [
				{
					"internalType": "uint256",
					"name": "y",
					"type": "uint256"
				}
			],
			"stateMutability": "pure",
			"type": "function"
		},
		{
			"inputs": [],
			"name": "streakMaxInterval",
			"outputs": [
				{
					"internalType": "uint256",
					"name": "",
					"type": "uint256"
				}
			],
			"stateMutability": "view",
			"type": "function"
		},
		{
			"inputs": [],
			"name": "streakMinInterval",
			"outputs": [
				{
					"internalType": "uint256",
					"name": "",
					"type": "uint256"
				}
			],
			"stateMutability": "view",
			"type": "function"
		}
	]
}